:020000040800F2
:1000000008090024390300083B3D00087F39000837
:10001000393D000847040008D345000800000000EF
:10002000000000000000000000000000813F000808
:1000300099060008000000003D3D0008833F0008CD
:100040005703000857030008570300085703000828
:100050005703000857030008570300085703000818
:100060005703000857030008570300085703000808
:1000700057030008570300085703000857030008F8
:1000800057030008570300085703000857030008E8
:1000900057030008570300085703000857030008D8
:1000A00057030008570300085703000857030008C8
:1000B000294100083541000857030008570300088C
:1000C00057030008570300085703000857030008A8
:1000D0005703000857030008570300085703000898
:1000E00057030008570300080000000057030008EA
:1000F0005703000857030008570300085703000878
:100100005703000857030008570300085703000867
:10011000570300085703000841410008570300082F
:100120005703000857030008570300085703000847
:100130005703000857030008570300085703000837
:1001400000000000000000000000000000000000AF
:1001500057030008570300087504000857030008F8
:100160005703000857030008570300085703000807
:1001700057030008570300086904000857030008E4
:1001800057030008570300085703000857030008E7
:1001900057030008570300085703000857030008D7
:1001A00057030008570300085703000857030008C7
:1001B00057030008570300085703000857030008B7
:1001C00057030008570300085703000857030008A7
:1001D0005703000857030008570300085703000897
:1001E0005703000857030008570300085703000887
:1001F0005703000857030008570300085703000877
:100200005703000857030008570300085703000866
:100210005703000857030008570300085703000856
:1002200057030008570300085703000800000000A8
:100230005703000857030008000000005703000898
:100240005703000857030008570300085703000826
:100250005703000857030008570300085703000816
:100260005703000857030008570300085703000806
:100270005703000857030008570300080000000058
:100280005703000857030008570300080000000048
:10029000000000005703000800F002F800F03CF8EE
:1002A0000AA090E8000C82448344AAF10107DA45D1
:1002B00001D100F031F8AFF2090EBAE80F0013F0E7
:1002C000010F18BFFB1A43F001031847E843000071
:1002D00008440000103A24BF78C878C1FAD8520701
:1002E00024BF30C830C144BF04680C6070470000B0
:1002F0000023002400250026103A28BF78C1FBD82F
:10030000520728BF30C148BF0B6070471FB504F0CB
:10031000BFF91FBD10B510BD00F060F81146FFF722
:10032000F5FF04F069F900F07EF803B4FFF7F2FF7F
:1003300003BC00F081F800000A4880470A48804763
:100340000A480047FEE7FEE7FEE7FEE7FEE7FEE7B6
:10035000FEE7FEE7FEE7FEE705480649064A074BCB
:1003600070470000ED0600083140000899020008BF
:1003700008030024080900240805002408050024B7
:100380004FF0000200B5134694469646203922BF2E
:10039000A0E80C50A0E80C50B1F12001BFF4F7AF79
:1003A000090728BFA0E80C5048BF0CC05DF804EB5B
:1003B000890028BF40F8042B08BF704748BF20F8C9
:1003C000022B11F0804F18BF00F8012B70477047C7
:1003D0007047704700487047A80200247546FFF731
:1003E000F9FFAE4605006946534620F007008546F2
:1003F00018B020B5FFF7B0FFBDE820404FF0000671
:100400004FF000074FF000084FF0000B21F00701FC
:10041000AC46ACE8C009ACE8C009ACE8C009ACE83F
:10042000C0098D46704710B50446AFF300802046E2
:10043000BDE81040FFF779BF01491820ABBEFEE7C9
:10044000260002007047FEE710B5806B816C496D95
:10045000022906D0012180F83510C16C41F040011D
:10046000C16400F051F910BD014800F067B9000007
:1004700028000024014800F0F5BB000078000024AB
:10048000294A016891423AD0274A1832914236D01F
:10049000254A3032914232D0234A483291422ED0FE
:1004A000214A603291422AD01F4A7832914226D0A6
:1004B0001D4A9032914222D01B4AA83291421ED04E
:1004C0001A4A91421BD0194A1832914217D0174A42
:1004D0003032914213D0154A483291420FD0134A1C
:1004E000603291420BD0114A7832914207D00F4AC4
:1004F0009032914203D00D4AA832914211D1CAB232
:100500001823103AB2FBF3F26FF30901032A02F049
:100510000703074AD25CC26500D9091D81650846F8
:10052000704721F0FF01F9E710000240100402407B
:100530009A46000830B5224A012301689142CAB2A6
:100540001BD01F4C1434A14217D01D4C2834A1429B
:1005500013D01B4C3C34A1420FD0194C5034A14253
:100560000BD0174C6434A14207D0154C7834A1420B
:1005700003D0134C8C34A1420CD11421114C083AF5
:10058000B2FBF1F10F4A803201F01F0504EB81014B
:10059000AB4010E00C4D1824103A0D44B2FBF4F1BE
:1005A000A82D00D80831094A01F01F0402EB81018F
:1005B000064AA3408032603080E80E0030BD000063
:1005C0000854025800580258F0FBFDBF00080240D2
:1005D00010B50279531E072B2DD8174C0168A14284
:1005E0001BD0154C1434A14217D0134C2834A1420F
:1005F00013D0114C3C34A1420FD00F4C5034A142C7
:100600000BD00D4C6434A14207D00B4C7834A1427E
:1006100003D0094C8C34A14203D10849074C443122
:1006200002E00749064C443104EB8202C0E91B2179
:1006300001219940416710BD08540258FC580258E6
:10064000FC08024010B583694FF0C074826A01460D
:10065000002053B1B3F5005F15D072B1012A0CD060
:10066000022A0AD0032A09D104E01AB1012A06D0CD
:10067000022A03D1C96AC90100D5012010BDC96A87
:10068000A142FAD010BD002AF7D0012AF2D0022AE6
:10069000F3D0032AF3D010BD704770B5B0F9001045
:1006A000B0F90420B0F90250B0F906608A1A4FF48C
:1006B00000435C42A91B9A4202DBA2F5803203E0B0
:1006C000A24201DC02F580320281994202DBA1F5EF
:1006D000803103E0A14201DC01F5803141810188D4
:1006E00081804188C18070BD72B6FEE7054805492A
:1006F0000839026842F00202026008688004FCD5F2
:10070000704700000C4802587047000010B501F017
:1007100021F9094C6168401AB0F57A7F06D301F0DF
:1007200019F9606000216078A07061700121607823
:10073000401C6070217010BD140000242DE9F041B0
:1007400004460068234F0426056969070BD54661F6
:10075000E06C40F00200E06484F83560A06C07654E
:10076000A06C00F03DF9A8070DD521680220486172
:10077000E06C40F00100E06484F83560A06C07652F
:10078000A06C00F02DF9E80605D52168102048611D
:10079000204600F073F8280705D521680820486135
:1007A000204600F01BF9E80712D02068016889078D
:1007B00003D5C16821F01E01C16020680121C26813
:1007C00022F00102C260206841612046FFF79EFFCF
:1007D000BDE8F081490400082DE9F041040003D090
:1007E00094F8350018B105E00120BDE8F0812046FD
:1007F00000F046F8A16902204FF0000E84F83500A1
:1008000009B1C4F824E020681B4A01681140016066
:10081000D4E90452E168D4E9010C29431043A269E8
:10082000084354F8201B40EA0C001043B4E8E810D9
:100830000A68184328433043384340EA0C00104309
:10084000086054F8300C343C102808D1A17FA08BEC
:100850002368E27F61F31F4040EA026098612068EC
:100860000121C26842F01E02C260C4F84CE084F864
:1008700035100020B9E7000007F0E0FF70470000E6
:100880002DE9F04186B0804614216846FFF778FDD7
:100890004949D8F8000088427DD14848016841F0B4
:1008A00001010160006800F0010005904348001D4F
:1008B000016841F010010160016801F0100105912B
:1008C000016841F001010160016801F00101059139
:1008D000016841F004010160016801F00401059123
:1008E000016841F008010160016801F0080105910B
:1008F000016841F002010160006802240025694698
:1009000000F00200059073200D268DE831002C4880
:10091000CDE9035600F0FCFE502069468DE8310019
:100920002848CDE9035600F0F3FEC02069468DE863
:1009300031002548CDE9035600F0EAFE082069465B
:100940008DE831002148CDE9035600F0E1FE80201A
:1009500069468DE831001E48CDE9035600F0D8FE07
:100960001D4E4B271B4C3015C4E90067A560810064
:1009700002018310C4E9035004F114000426032784
:1009800080E8EE00E5622046256300F0DFFC08B158
:10099000FFF7AAFE00E00BE00022C8F848404E2016
:1009A0001146C4F8388001F09BF84E2001F08AF817
:1009B00006B0BDE8F081000000000248DC440258A7
:1009C000001002580000025800080258000C02589B
:1009D0000004025878000024B80402407047000068
:1009E0002DE9F05F28B190F83510022904D080215C
:1009F00041650120BDE8F09F904C904B0168183C88
:100A000018338E4ADFF83C92A1428D4CDFF838E271
:100A10008E4FDFF83CB2DFF83CA28F4D8F4E31D0C5
:100A200091422FD099422DD0A1422BD0494529D0B7
:100A3000714527D0B94225D0DFF810C20CF1180C4F
:100A400061451FD0DFF808C2ACF1600C614519D0D8
:100A5000DFF8FCC1ACF1480C614513D0DFF8F0C100
:100A6000ACF1300C61450DD0DFF8E4C1ACF1180CED
:100A7000614507D0594505D0514503D0A94201D061
:100A8000B1422CD1DFF8B4C14FF0040880F83580B2
:100A9000ACF1180C61451DD091421BD0994219D080
:100AA000A14217D0494515D0714513D0B94211D094
:100AB0006648183081420DD065486038814209D0BF
:100AC00063484838814205D061483038814201D0BE
:100AD0005F481838086820F001000860ABE0D1F8E2
:100AE00000C02CF00E08DFF854C1C1F80080ACF152
:100AF000180C0168614527D0914225D0994223D036
:100B0000A14221D049451FD071451DD0B9421BD00B
:100B1000DFF838C10CF1180C614515D0DFF830C191
:100B2000ACF1600C61450FD0DFF824C1ACF1480C8A
:100B3000614509D0DFF818C1ACF1300C614503D034
:100B4000DFF80CC1ACF1180CD1F800C02CF0010C8E
:100B5000C1F800C0DFF8E4804FF0010C0168A8F193
:100B60001808414546D0914244D0994242D0A14212
:100B700040D049453ED071453CD0B9423AD0334A85
:100B80001832914236D0324A603A914232D0304ADD
:100B9000483A91422ED02E4A303A91422AD02C4ADD
:100BA000183A914226D0594524D0514522D0A94225
:100BB00020D0B1421ED02A4A91421BD0284A14327A
:100BC000914217D0264A2832914213D0244A3C320F
:100BD00091420FD0224A503291420BD0204A6432C7
:100BE000914207D01E4A7832914203D01C4A8C327F
:100BF000914218D1016E0A6822F480720A6090F85E
:100C00005C20816D02F01F020CFA02F24A60D0E90A
:100C100019124A60C16E31B10A6822F480720A600A
:100C2000D0E91C124A600022016D80F835C080F8BE
:100C3000342001B188470020DCE600002800024093
:100C4000580002407000024088000240A0000240AC
:100C50007004024088040240A0040240B80402402C
:100C6000085402582DE9FC5F0446F74E0020DFF8D7
:100C7000D88300904FF41652F44808F11808A56D77
:100C8000DFF8C493DFF8C0A3016809F130092068D8
:100C90000AF1480AB1FBF2F1B04201912F68D5F890
:100CA00000C0DFF8ACB335D04146884232D0484569
:100CB00030D050452ED058452CD0E54918318842C7
:100CC00028D0E3493031884224D0E1494831884274
:100CD00020D0E04988421DD0DE491831884219D021
:100CE000DC493031884215D0DA494831884211D088
:100CF000DFF860E30EF1600E70450BD0D54A783214
:100D0000904207D0D34B9033984203D0D149A831B9
:100D100088427DD194F85C20082102F01F0201FA7C
:100D200002F23A424AD0B04232D0404530D0484533
:100D30002ED050452CD058452AD0C54A1832904262
:100D400026D0C34A3032904222D0C14A4832904223
:100D50001ED0C04A90421BD0BE4A1832904217D0D3
:100D6000BC4A3032904213D0BA4A483290420FD037
:100D7000B84A603290420BD0B64A7832904207D0DF
:100D8000B44A9032904203D0B24AA832904203D182
:100D9000026802F0040202E0026802F008026AB18E
:100DA000026822F00402026094F85C0000F01F0068
:100DB0008140A960606D40F00100606594F85C00BE
:100DC000012100F01F008140394240D02068B0422C
:100DD00034D0404532D0484530D050452ED05845CB
:100DE0002CD09B4A1832904228D0994A30329042F7
:100DF00024D0974A4832904220D0964A90421DD043
:100E0000944A1832904219D0924A3032904200E00F
:100E1000AFE113D08F4A483290420FD08D4A6032F2
:100E200090420BD08B4A7832904207D0894A903258
:100E3000904203D0874AA83290427DD1406910F099
:100E4000800F04D0A960606D40F00200606594F8E6
:100E50005C00042100F01F00814039423ED0206830
:100E6000B04232D0404530D048452ED050452CD0ED
:100E700058452AD0764A1832904226D0744A3032E9
:100E8000904222D0724A483290421ED0714A90421B
:100E90001BD0704A1832904217D06E4A30329042BE
:100EA00013D06C4A483290420FD06A4A6032904266
:100EB0000BD0684A7832904207D0664A903290420E
:100EC00003D0644AA83290424ED1006810F0020F5D
:100ED00004D0A960606D40F00400606594F85C0087
:100EE000102100F01F008140394258D02068B042E4
:100EF00034D0404532D0484530D050452ED05845AA
:100F00002CD0534A1832904228D0514A3032904265
:100F100024D04F4A4832904220D04E4A90421DD0B1
:100F20004C4A1832904219D04A4A3032904215D079
:100F3000484A4832904200E014E00FD0454A6032FF
:100F400090420BD0434A7832904207D0414A9032C7
:100F5000904203D03F4AA832904207D1006800F087
:100F6000080006E0006872E70068B7E7006800F074
:100F70000400A0B1A96020680168490304D5006895
:100F8000000308D5A16C07E00168C90503D4016816
:100F900021F008010160216C09B12046884794F8CE
:100FA0005C00202100F01F008140394279D0206888
:100FB000B04232D0404530D048452ED050452CD09C
:100FC00058452AD0224A1832904226D0204A303240
:100FD000904222D01E4A483290421ED01D4A904272
:100FE0001BD01C4A1832904217D01A4A3032904215
:100FF00013D0184A483290420FD0164A60329042BD
:101000000BD0144A7832904207D0124A9032904264
:1010100003D0104AA832904203D1006800F01000BB
:1010200002E0006800F00200B0B3A96094F8350057
:101030000428206801680FD049037ED500680003AA
:101040002BD4616C2AE00000100002400C00002448
:10105000700002401004024021F016010160206877
:10106000416921F080014161206C08B9A06C20B178
:101070002068016821F00801016094F85C303F218C
:10108000012003F01F0300229940A96084F8350075
:1010900084F83420216D65E003E0E16B09B120465E
:1010A0008847606D00287DD0606DC00759D02068EA
:1010B000042184F83510B0422BD0404529D0484552
:1010C00027D0504525D0584523D09D49884220D06F
:1010D0009B49183188421CD099493031884218D038
:1010E0009849884215D097491831884211D09549BE
:1010F000303188420DD093494831884209D0914916
:101100006031884205D08F497831884201D08D49BD
:101110009031016821F00101016020680099019A75
:10112000491C0091914202D80168C907F6D10068B4
:10113000C00710D003200FE0FFE70168C905ACD459
:1011400003680121002223F01003036084F83510A6
:1011500084F83420A1E7012084F83500002084F8C9
:101160003400E16C00291DD002B02046BDE8F05FDC
:101170000847754988421DD073491431884219D0F7
:1011800071492831884215D06F493C31884211D0CD
:101190006D49503188420DD06B496431884209D085
:1011A000694900E084E07831884203D066498C3197
:1011B00088427DD194F85C800427016808F01F08FC
:1011C00007FA08F717EA0C0F009746D04F0744D5E7
:1011D00000980F04686003D5C8033CD4A16CC1E734
:1011E000880638D42068B0422DD0554960398842ED
:1011F00029D0484527D0504525D0584523D05049BF
:10120000884220D04E49183188421CD04C49303198
:10121000884218D04B49884215D04A491831884233
:1012200011D04849303188420DD046494831884272
:1012300009D0704507D0904205D0984203D041496B
:10124000A831884203D1016821F0080102E0016859
:1012500021F004010160216C84E7022707FA08F7F6
:1012600017EA0C0F00974ED08F074CD500980F044B
:10127000686003D5C80344D4616C73E7880640D422
:101280002068B0422FD02E49603988422BD0484583
:1012900029D0504527D0584525D02949884222D009
:1012A0002749183188421ED025493031884200E054
:1012B00044E018D02349884215D022491831884289
:1012C00011D02049303188420DD01E494831884222
:1012D00009D0704507D0904205D0984203D01949F3
:1012E000A831884203D1016821F0140102E00168AD
:1012F00021F00A010160012184F83510002084F8F2
:101300003400E16B2EE7082202FA08F212EA0C0F11
:1013100014D0090712D5016821F00E01016094F87C
:101320005C100120002201F01F0100FA01F1696048
:10133000606584F8350084F8342012E7BDE8FC9F2E
:101340008800024010040240085402582DE9F05F62
:10135000044600F0FFFA002C07467DD0E34E022140
:1013600020684FF00308DFF888934FF00005DFF89E
:1013700084A3B042DFF880B334D0DC4A1832904204
:1013800030D048452ED050452CD058452AD0DA4A86
:101390001832904226D0D84A3032904222D0D64AD3
:1013A000483290421ED0D54A90421BD0D34A1832C0
:1013B000904217D0D14A3032904213D0CF4A4832AF
:1013C00090420FD0CD4A603290420BD0CB4A783257
:1013D000904207D0C94A9032904203D0C74AA832FF
:1013E00090427DD184F83510B04284F834502ED02C
:1013F000BE49183188422AD0484528D0504526D0C9
:10140000584524D0BC491831884220D0BA493031DF
:1014100088421CD0B8494831884218D0B749884220
:1014200015D0B6491831884211D0B44930318842BC
:101430000DD0B2494831884209D0B0496031884264
:1014400005D0AE497831884201D0AC49903101686D
:1014500021F00101016008E027E100BF00F07AFA05
:10146000C01B052801D920211CE120680068C007A5
:10147000F4D104F108002168D4E9053C8E4685C802
:1014800009681043D4E907281F43636A38439C4F17
:1014900040EA0C001043394040EA0800042B40EABF
:1014A000010003D1D4E90B1211430843954909689F
:1014B0006FF30F01B1F1005F0FD36168A1F1290251
:1014C000052A08D9163A032A05D9083A012A02D969
:1014D0004F39032901D840F48010CEF8000000E015
:1014E00023E02068676A4069042F20F0070047EA7C
:1014F00000070DD1D4E90A01074349B12046FFF79F
:10150000A1F828B140206065012184F83510CCE0B5
:10151000206847612046FEF7B3FF94F85C203F2126
:1015200002F01F029140816054E0774A90421BD044
:10153000754B1433984217D0734B2833984213D00D
:10154000714B3C3398420FD06F4B503398420BD0C5
:101550006D4B6433984207D06B4B7833984203D07D
:10156000694B8C3398427DD184F8351084F834501F
:10157000664B0168A26801EA030E402A73D0802AF4
:1015800072D00022D4E90378D4E9053142EAD702C7
:1015900042EAD8085C4AD4E9077C48EAD30848EA1A
:1015A000D10141EAD701524241EA1C11142341EA18
:1015B0000E01016020681044B0FBF3F08000E0658C
:1015C0002046FEF75DFF94F85C20012102F01F0227
:1015D000914041602068B04257D044491831884258
:1015E00053D0484551D050454FD058454DD0424931
:1015F0001831884249D040493031884245D03E496F
:101600004831884241D03D4988423ED03B4918315B
:1016100088423AD039493031884236D0374948314A
:10162000884232D03549603188422ED033497831F2
:1016300088422AD031499031884226D02F49A8319A
:10164000884222D0304988421FD02F491431884225
:101650001BD02D492831884217D02B493C31884274
:1016600013D002E01DE017E018E02749503188420E
:101670000BD025496431884207D02349783188420C
:1016800003D021498C31884229D12046FEF752FFF0
:10169000A06880280CD00CE0102273E74FF4804241
:1016A00070E74021616584F835800120BDE8F09F36
:1016B0006560216E20790860D4E919014160606895
:1016C000401E072808D82046FEF782FFE06E05601E
:1016D000D4E91C01416002E0E566256765670120E9
:1016E000656584F835000020E0E700001000024046
:1016F00040000240580002407000024010040240C6
:101700003F8010FE0010005C085402580F00FEFFDE
:101710002DE9F84F03247D4D00234FF001094FF0D0
:10172000B04B4FF00F0AE9E009FA03F73A4076D0E0
:101730000E7906F00306012E01D0022E18D1D0F842
:1017400008C04FEA430ECE6804FA0EF82CEA080CE3
:1017500006FA0EF646EA0C068660D0F804C00E794A
:101760002CEA070CC6F300169E4046EA0C064660BB
:101770000E79F643B6070BD0C6684FEA43088F6868
:1017800004FA08FC26EA0C0607FA08F73743C76094
:101790000E7906F00306022E12D1DE080F694FEA19
:1017A000437C00EB8606B646366A4FEADC6C0AFAE2
:1017B0000CF807FA0CF726EA08063743CEF8207033
:1017C0000F7906684FEA430807F0030704FA08FC9C
:1017D00007FA08F726EA0C06374307604E6816F446
:1017E000403F1CD04A4E376847F0020737603668E2
:1017F0009F0706F00206009623F0030606F1B046A6
:10180000B6463F0FD6F80864DFF808810AFA07FCED
:10181000404526EA0C0603D14FF0000C41E06CE095
:10182000DFF8F4C0604502D14FF0010C39E0DFF879
:10183000ECC0604502D14FF0020C32E0DFF8E0C0AE
:10184000604502D14FF0030C2BE0DFF8D8C06045B3
:1018500002D14FF0040C24E0DFF8CCC0604502D187
:101860004FF0050C1DE0DFF8C4C0604502D14FF019
:10187000060C16E0DFF8B8C0604502D14FF0070C47
:101880000FE0DFF8B0C0604502D14FF0080C08E06F
:10189000DFF8A4C0604502D14FF0090C01E04FF021
:1018A0000A0C0CFA07FC4CEA060CCEF808C44F6888
:1018B000DBF80060FF0226EA020600D516435F4609
:1018C000CBF80060D1F804C0DBF804605FEA8C2C30
:1018D00026EA020600D516437E606E684F6826EA47
:1018E0000206BF0300D516436E602E684F6826EAD5
:1018F0000206FF0300D516432E605B1C0A6832FA0D
:1019000003F67FF411AFBDE8F88F000080000058A7
:10191000F44402580000025800040258000802581B
:10192000000C025800100258001402580018025807
:10193000001C025800200258002402580AB181619C
:1019400070470904FBE7000001480068000C70477D
:101950000010005C0148806870470000000000240F
:1019600002488168027811448160704700000024B9
:10197000032010B500F0D4F800F012FF0F4A104910
:1019800014681368C4F3032203F00F038A5CC95C74
:1019900002F01F0201F01F01D0400A4A20FA01F1B3
:1019A0001160094908600F2000F010F808B101200B
:1019B00010BD00F079F8002010BD00001844025856
:1019C000A2460008100000240C00002470B50D4D44
:1019D00004462878A0B14FF47A71B1FBF0F00A49BF
:1019E0000968B1FBF0F001F03BFB48B9102C07D2BD
:1019F00000222146501E00F073F800206C6070BD7C
:101A0000012070BD000000240C000024154BF0B52F
:101A1000083B427813491A600B680A1F23F0010340
:101A20000B6043681360057BC67A827A437B2D077F
:101A3000847B45EA0665C77B90F809C0067A90F872
:101A400000E045EAC24040EA834040EA444040EAC0
:101A5000074040EA0C2040EA460040EA0E000860D9
:101A6000F0BD0000A0ED00E0BFF35F8F044800214F
:101A70000368034A23F480330360703211607047B7
:101A800024ED00E0074A40F0010006497032106082
:101A9000086840F480300860BFF34F8FBFF36F8F4A
:101AA0007047000024ED00E0054808B5016841F0EA
:101AB00002010160006800F00200009008BD000013
:101AC000F4440258002809DB410900F01F02890094
:101AD000012001F1E0219040C1F8000170470000B1
:101AE0000E4BF0B41B680D46C3F30223C3F1070687
:101AF000042E00D90426191D072901D2002300E075
:101B0000DB1E012404FA06F19C40491E2940641E94
:101B1000994014402143F0BC02F05CBD0CED00E0A4
:101B2000064900F0070210B54FF6FF040868044BA1
:101B3000204040EA02201843086010BD0CED00E090
:101B40000000FA05134970B50A68D243520705D55B
:101B5000096801F00701814213D118E00A6822F0F8
:101B6000070202430A60FFF7F5FE0A4D4FF47A764A
:101B70000446083D07E000BFFFF7ECFE001BB04243
:101B800001D9012070BD2868C0438004F4D400202E
:101B900070BD00000C4802582DE9FE4F0546DFF8E5
:101BA000E48350F8081B0024F64FC943019005F167
:101BB0002800264608F12408009008011DD4A86ECC
:101BC00050B1B0F5801F0CD0B0F5001F0ED0B0F5AD
:101BD000401F1ED001240FE0386840F40030386008
:101BE00017E00198022102F0ABF803E0009802210F
:101BF00002F036F904000CD026462888C043C00500
:101C000023D4A86D05281ED2DFE800F00C11161BA6
:101C10001B00AA6ED8F8001021F440111143C8F837
:101C20000010EAE7386840F40030386009E00198B5
:101C3000002102F085F803E00098002102F010F97D
:101C4000044674B100E0012426462888C04380057C
:101C500028D4E86D80281ED00CDC90B140280ED12D
:101C600014E0AA6DD8F8001021F007011143C8F85C
:101C70000010EAE7C02813D0B0F5807F10D001240F
:101C80000FE0386840F40030386009E00198002126
:101C900002F056F803E00098002102F0E1F8044653
:101CA0009CB126462888DFF8DC92C04309F12C0954
:101CB00040052CD4D5F8A800B0F5800F20D00DDC5D
:101CC000A0B1B0F5001F0FD115E0EA6DD8F80010F3
:101CD00021F4E0711143C8F80010E3E7B0F5C00F3C
:101CE00013D0B0F5000F10D001240FE0386840F495
:101CF0000030386009E00198002102F021F803E08B
:101D00000098002102F0ACF804467CB126462888F1
:101D1000C04300052DD4D5F8AC00B0F1007F21D030
:101D20000EDCA8B1B0F1807F10D116E0D5F8A82064
:101D3000D9F8001021F460011143C9F80010E6E75A
:101D4000B0F1407F13D0B0F1806F10D001240FE0CC
:101D5000386840F40030386009E00198002101F053
:101D6000EFFF03E00098002102F07AF8044674B116
:101D700026462868C04380011FD4E86CD8B11028DB
:101D80000FD0202812D0302815D0012414E0D5F827
:101D9000AC20D9F8001021F0E0611143C9F800101F
:101DA000E7E7386840F40030386004E00198022129
:101DB00001F0C6FF044674B126462888C043C0041B
:101DC0002BD4286EB0F5005F20D00DDCA0B1B0F5AB
:101DD000805F0FD115E06B48EA6C2030016821F07C
:101DE000300111430160E8E7B0F5405F13D0B0F572
:101DF000804F10D001240FE0386840F40030386084
:101E000009E00198002101F09BFF03E00098002108
:101E100002F026F804468CB126462888C043800488
:101E200029D4686EB0F5403F23D010DC08B3B0F57C
:101E3000803F14D0B0F5003F0FD115E02A6ED8F8DE
:101E4000001021F4E0411143C8F80010E5E7B0F5B7
:101E5000802F0ED0B0F5A02F0BD001240AE00198FE
:101E6000012101F06DFF03E00098012101F0F8FF6E
:101E7000044694B126462888C04340042AD4D5F8A5
:101E8000B000B0F1405F23D010DC08B3B0F1805F48
:101E900014D0B0F1005F0FD115E06A6ED8F80010D1
:101EA00021F4E0211143C8F80010E4E7B0F1804FBD
:101EB0000ED0B0F1A04F0BD001240AE0019801210F
:101EC00001F03EFF03E00098012101F0C9FF044644
:101ED00074B126462888C04300041FD4286FD8B1A7
:101EE000B0F1805F0ED0B0F1005F10D0012414E09B
:101EF000D5F8B020D9F8001021F0E0411143C9F81D
:101F00000010E7E7386840F40030386004E00198DA
:101F1000012101F015FF044674B126462868C0432C
:101F2000C0011ED4A86CD0B101280ED0022811D057
:101F3000032814D0012413E02A6FD8F8001021F0F0
:101F400040511143C8F80010E8E7386840F4003009
:101F5000386004E00198022101F0F2FE0446ACB1C1
:101F600026462868DFF81CB0C043ABF11C0B4002CA
:101F700052D40548016841F480710160FFF7EAFC22
:101F8000824611E02C44025800480258FA48AA6CD4
:101F9000016821F0030111430160E2E7FFF7DAFC79
:101FA000A0EB0A00642835D8F4480068C005F5D5D0
:101FB0008CBBDFF8C4A3B5F8B4100AF1240ADAF830
:101FC000000001F4407100F44070884211D0DAF84A
:101FD0000010DAF8002021F4407142F48032CAF88F
:101FE0000020DAF8002022F48032CAF80020CAF873
:101FF0000010D5F8B400B0F5807F1AD1FFF7AAFC25
:10200000029012E0FFF7A6FC0299411A41F28830D3
:1020100081420AD9032426462878DFF85CA3C0430E
:102020000AF1080AC00721D03CE0DAF80000800776
:10203000E8D5D5F8B410C1F30120032858460DD0D7
:10204000016821F47C510160B5F8B420DAF8001081
:10205000C2F30B021143CAF80010DDE7C84A036857
:1020600002EA111223F47C511143ECE7E86F1828BF
:1020700016D005DCA0B1082808D0102804D10AE049
:1020800020280DD028280BD001240AE00198012136
:1020900001F056FE03E00098012101F0E1FE044644
:1020A00064B126462878C04380071ED4A86F06284E
:1020B00019D2DFE800F0160C11161616EA6FDAF8DE
:1020C000001021F038011143CAF80010EAE7019826
:1020D000012101F035FE03E00098012101F0C0FE6E
:1020E00004467CB100E0012426462878C04340071E
:1020F0001FD4D5F89400062819D2DFE800F0160C9A
:1021000011161616AA6FDAF8001021F00701114314
:10211000CAF80010E9E70198012101F011FE03E07F
:102120000098012101F09CFE0446A4B100E00124C6
:1021300026462878C04380062BD4D5F89000B0F10D
:10214000405F24D011DC10B3B0F1805F15D0B0F146
:10215000005F10D116E0D5F89420D9F8001021F0D6
:1021600007011143C9F80010E3E7B0F1804F0ED02A
:10217000B0F1A04F0BD001240AE00198002101F03A
:10218000DFFD03E00098022101F06AFE044694B1ED
:1021900026462878C04340062BD4D5F89C00B0F5DD
:1021A000406F24D011DC10B3B0F5806F15D0B0F5BE
:1021B000006F10D116E0D5F89020DAF8001021F069
:1021C000E0411143CAF80010E3E7B0F5805F0ED09C
:1021D000B0F5A05F0BD001240AE00198002101F0C6
:1021E000AFFD03E00098022101F03AFE044694B1ED
:1021F00026462878C04300062BD4D5F8A000B0F5B9
:10220000C04F24D011DC10B3B0F5005F15D0B0F58D
:10221000804F10D116E0D5F89C20D9F8001021F499
:10222000E0511143C9F80010E3E7B0F5004F0ED0BC
:10223000B0F5204F0BD001240AE00198002101F0F5
:102240007FFD03E00098022101F00AFE044654B12C
:1022500026462878C04300071ED4D5F88400B0F580
:10226000805F0AD00FE0D5F8A020D9F8001021F443
:1022700060411143C9F80010EBE70098022101F01A
:10228000EFFD00B10126D5F88420DAF8001021F422
:1022900040511143CAF800102878C043C00613D437
:1022A000D5F89800B0F5807F05D10098022101F0A3
:1022B000D7FD00B10126D5F89820D9F8001021F4F7
:1022C00040711143C9F800102868C043000316D4B8
:1022D000D5F8A40038B1B0F5803F09D0B0F5003F83
:1022E0000BD001240AE00198002101F029FD03E050
:1022F0000098022101F0B4FD04468CB126462868FE
:10230000C043400322D4D5F88800B0F5801F11D017
:10231000B0F5001F13D0B0F5401F15D0012414E014
:10232000D5F8A420D9F8001021F440311143C9F8A0
:102330000010E4E7386840F40030386004E00098AA
:10234000012101F08DFD04465CB126462868C0439A
:10235000C00323D4286DA8B1B0F5803F17D0012465
:102360001BE0D5F88820DAF8001021F44011114361
:10237000CAF80010EAE700004C440258004802582E
:10238000CFFFFF00386840F40030386004E0019867
:10239000022101F0D5FC0446E4B126462868C0437A
:1023A000800005D40098022101F05AFD00B10126F9
:1023B0002868C04380031BD4D5F88000B0B1B0F5C5
:1023C000807F0FD0B0F5007F10D0B0F5407F0DD0EA
:1023D00001240CE05A482A6D016821F48031114330
:1023E0000160DBE7386840F400303860ECB3264623
:1023F0002868C043C00207D46A6FD8F8001021F0E3
:1024000000411143C8F800102868C043C00008D438
:10241000D5F8B820DBF8001021F480411143CBF847
:1024200000102868C043800207D4EA6ED8F8001074
:1024300021F080711143C8F800102868C0434000A3
:102440000CD4DBF8001021F40041CBF80010DBF8CD
:102450000010D5F8BC201143CBF800102868C04309
:1024600008D437486A6D016800E018E021F0405157
:10247000114301602868C043000208D4D5F88C20BD
:10248000DAF8001021F440011143CAF8001028794D
:102490000024C04300F0010020430AD00FE0D5F82B
:1024A0008020DAF8001021F440711143CAF80010BE
:1024B0009EE70198002101F043FC00B1064628790F
:1024C000C04300F00200204305D10198012101F032
:1024D00037FC00B106462879C04300F004002043D1
:1024E00005D10198022101F02BFC00B106462879A4
:1024F000C04300F00800204305D10098002101F0FE
:10250000AFFC00B106462879C04300F0100020431C
:1025100005D10098012101F0A3FC00B106462879FD
:10252000C04300F02000044304D10098022101F0D0
:1025300097FC00B916B10120BDE8FE8F0020FBE733
:102540004C4402582DE9F05F04000F467ED0DFF8BE
:102550003882D8F8000000F00F00B8420CD2D8F84A
:10256000001021F00F013943C8F80010D8F800001E
:1025700000F00F00B84269D12078844D40070AD599
:102580002069296801F07001884204D9296821F086
:1025900070010143296020787C4E361D00070AD562
:1025A0006069316801F07001884204D9316821F016
:1025B0007001014331602078C0060AD5A0693168F6
:1025C00001F4E061884204D9316821F4E0610143FB
:1025D00031602078DFF8B4B180060BF1080B0CD520
:1025E000E1695846DBF8002002F07002914204D9FC
:1025F000026822F070020A430260207880070AD540
:10260000E068296801F00F01884204D9296821F0A7
:102610000F01014329602078C0073ED05B49A268C2
:102620002868183920F47060104328606068022818
:1026300018D0032819D00968012819D049070029A2
:102640004ADADFF848A1AAF1080A00E044E0DAF823
:10265000002022F007020243CAF80020FFF77AF9AF
:10266000814612E009688903E9E709688901E6E71C
:10267000C905E4E7FFF76EF9A0EB090141F28830E4
:10268000814202D90320BDE8F09F6168DAF80000BA
:1026900000F03800B0EBC10FECD1207880070AD5EC
:1026A000E068296801F00F01884204D2296821F00E
:1026B0000F0101432960D8F80010404601F00F01D6
:1026C000B9420BD9016821F00F013943016000685C
:1026D00000F00F00B84201D00120D4E72078400775
:1026E0000AD52069296801F07001884204D229685E
:1026F00021F0700101432960207800070AD5606944
:10270000316801F07001884204D2316821F0700113
:10271000014331602078C0060AD5A069316801F410
:10272000E061884204D2316821F4E0610143316004
:10273000207880060CD5E1695846DBF8002002F0CD
:102740007002914204D2026822F070020A430260D1
:1027500000F026F80E492A682B68C2F3032203F022
:102760000F038A5CC95C02F01F0201F01F01D04018
:10277000084A20FA01F1116007490860074800681B
:10278000BDE8F05FFFF722B900200052184402585C
:10279000A2460008100000240C00002404000024BD
:1027A000454970B545480968434B103B11F0380264
:1027B00008D00111082A03D0102A0BD0182A0BD0F8
:1027C000084670BD19688906FBD51968C1F3C101B7
:1027D000C84070BD3A4870BD3749374D18310C1D9F
:1027E00024350A68096826682D6802F0030406F09B
:1027F0000102C1F30511C5F3CC0515FB02F200EE91
:10280000102AB8EE400AE9B32F4ADFED2E0AB7EEE0
:10281000001A6CB1DFED2D1A012C01D0022C43D02F
:1028200002EE101A1068F8EE422A81EEA22A1EE08B
:102830001C68A40611D51B6801EE901A1168C3F339
:10284000C103F8EE612AD84001EE900AC1F30800F6
:10285000F8EE611A81EEA22A0BE001EE901ADFED8C
:102860001C2A00BFF8EE611A106882EEA12AC0F39C
:10287000080001EE900AF8EE611A40EE201A31EEDF
:10288000810A00E015E022EE000A1068C0F346203D
:10289000401C00EE900AF8EE600A80EE201ABCEEB2
:1028A000C10A10EE100A70BD01EE901ADFED092A80
:1028B000D8E7002070BD0000104402580090D003FB
:1028C00040787D0100000039304402580024744AE9
:1028D0000024744C20BCBE4B2DE9F05F04007DD079
:1028E000FF4F2078FE4D1837DFF8F493103DC007F6
:1028F00048D0D9F80000396800F03800102815D009
:10290000182803D101F0030002280FD06068B0F549
:10291000803F12D010B1B0F5A02F18D0286820F455
:1029200080302860286820F4802009E0286880032F
:1029300028D560680028D2D024E0286840F4803090
:102940002860606888B1FFF705F8064609E0286846
:1029500040F480202860F0E7FEF7FCFF801B64282D
:102960006FD828688003F7D50CE0FEF7F3FF064622
:1029700005E000BFFEF7EEFF801B6428F0D8286852
:102980008003F7D4207841F20308D54E0C3E80072F
:1029900069D5D9F80000396810F038000ED0182831
:1029A00001D188070AD0E06890B3296821F01901A5
:1029B00001432960FEF7CEFF824631E028684007D8
:1029C00002D5E06800288AD0E168286820F0190064
:1029D00008432860FEF7BEFF824607E0DFE000BF45
:1029E000FEF7B8FFA0EB0A000228B9D82868400714
:1029F000F6D500BFFEF7A8FF40451BD82069402848
:102A000012D0316821F47C3141EA003030602AE094
:102A100018E000BFFEF79EFFA0EB0A0002289FD837
:102A200028684007F6D5E5E7306820F47C3040F4AC
:102A30000030EBE7207C316821F0FE4141EA006084
:102A4000E4E70DE1286820F001002860FEF782FF2E
:102A5000824605E0FEF77EFFA0EB0A0002288DD833
:102A600028684007F6D42078C0065DD5D9F8000064
:102A7000DFF86CB2396800F03800ABF1040B0828BD
:102A800010D0182803D101F0030001280AD0E06912
:102A90000028286838D040F080002860FEF75AFFF0
:102AA000824623E02868C00523D5E069802876D1D6
:102AB0001FE0206A202821D0316821F0F84141EA46
:102AC0008060306030E000BF94F82010DBF8002018
:102AD00022F07C5242EA0161CBF8001024E000BFF2
:102AE000FEF738FFA0EB0A00022898D82868C00536
:102AF000F6D5FEF729FF4045E6D8DAE7306820F042
:102B0000F84040F08040DCE720F080002860FEF7CD
:102B100021FF064605E000BFFEF71CFF801B0228D0
:102B20009DD82868C005F7D42078000729D56C48BF
:102B30006169643000298046016811D041F00101CB
:102B40000160FEF707FF064605E000BFFEF702FF43
:102B5000801B0228C9D8D8F800008007F6D510E0FD
:102B600021F001010160FEF7F5FE064605E000BF19
:102B7000FEF7F0FE801B022872D8D8F8000080070C
:102B8000F6D42078800623D5A0690028286810D0C4
:102B900040F480502860FEF7DDFE064605E036E191
:102BA000FEF7D8FE801B02285AD828688004F7D583
:102BB0000EE020F480502860FEF7CCFE064604E0CC
:102BC000FEF7C8FE801B02284AD828688004F7D484
:102BD000207840074FD5DFF80C81D8F8001041F479
:102BE0008071C8F80010FEF7B5FE064605E000BF8C
:102BF000FEF7B0FE801B642832D8D8F80000C0056C
:102C0000F6D5374EA068603601280AD008B10528ED
:102C100013D0306820F001003060306820F00400EC
:102C200002E0306840F001003060A06841F2883A6C
:102C300090B1FEF78FFE80460AE0306840F0040055
:102C40003060EEE7FEF786FEA0EB0801514507D89D
:102C500030688007F6D50EE0FEF77CFE804607E080
:102C600084E000BFFEF776FEA0EB080151457DD859
:102C700030688007F6D4606AB0B3DFF86480D9F8B2
:102C8000001008F120084FF6F87B08F10409C1F3A1
:102C9000C2010329A8F1040A69D00228286820F09B
:102CA0008070286003D0FEF755FE044684E0FEF7EE
:102CB00051FE064605E000BFFEF74CFE801B0228D1
:102CC00077D828688001F7D4E26A40F2F331386897
:102CD00054F8283F884340EA02101843386004E063
:102CE0001044025800480258B5E0217B434622892F
:102CF0004FF4FE0C208A4FF0FE474902267D521EFB
:102D0000401EA1F50071C2F308088AB2761E0CEAD3
:102D1000004042EA08020243504607EA06610A43BD
:102D20001A60DAF8002022F00102CAF80020D9F86F
:102D30000020266A22EA0B0242EAC602C9F80020F5
:102D4000DAF80010A26921F00C011143CAF8001052
:102D50000168E26921F0020111430160016841F458
:102D600080310160016841F4003101E021E027E099
:102D70000160016841F480210160016841F00101B6
:102D80000160286840F080702860FEF7E3FD04468B
:102D900005E000BFFEF7DEFD001B022809D8286809
:102DA0008001F7D557E000BFFEF7D4FD001B0228D5
:102DB00002D90320BDE8F09F28688001F4D44AE0DE
:102DC00039680128D8F8000021D0A26A01F0030375
:102DD00093421CD1E26AC1F305118A4217D1216BDB
:102DE000C0F30802491E8A4211D1616BC0F346222A
:102DF000491E91420BD1A16BC0F30642491E91427C
:102E000005D1E16BC0F30660491E814201D001206B
:102E1000D0E7A16C4E46D9F80000C0F3CC00814247
:102E200019D0DAF80000554620F00100CAF8000079
:102E3000FEF790FD4FEA0007FEF78CFDB842FBD08D
:102E4000A26C306820EA0B0040EAC20030602868BB
:102E500040F0010028600020ACE700002DE9F047B9
:102E6000040029D0594A4FF000092068584B594DA9
:102E70009042C4F8289006D0984204D0A84202D0CC
:102E8000E1680F2918D8E1684FF0010AE76B0831B3
:102E9000C9080AEB57167143904205D0984203D0F7
:102EA000A84201D0082907D8904203D0984201D007
:102EB000A84204D1102902D90120BDE8F08794F876
:102EC000810020B9204684F8809000F085F8022027
:102ED00084F881002068016821F001010160206808
:102EE000A1698268B1F1806F02F4F81110D16268B3
:102EF000B2F5800F01D01AB10AE0A26B22B107E04F
:102F0000A26BB2F1805F03D1026842F4805202608A
:102F10006068400209D5E068072806D32068236D61
:102F2000026822F480721A4303E02068026822F4E7
:102F300080720260A66AE069E26B25683043E3684C
:102F40000A4310431843A860D4E90D02D4E905816F
:102F5000636A25691843D4F820C00A4326681043E1
:102F60002843A56DD4E90172D4E9123140EA080082
:102F700040EA0C0038430843104318432843F060EC
:102F8000606868B92068816821F4C05141F400612B
:102F900081602068816821F4C06141F480618160B2
:102FA0002068016D21F0010101656068400206D5CD
:102FB0002068626DC16821F000411143C160C4F80E
:102FC000849084F881A0002077E700000030014061
:102FD00000380040003C004010B5B6B00446142153
:102FE00030A8FDF7CDF9C0216846FDF7C9F91949A8
:102FF000206888422BD14114002019900446CDE965
:1030000000106846FEF7C8FD08B1FDF76DFB1248D9
:10301000016841F400510160006800F400503590EF
:103020000D481038016841F010010160006830ABB4
:10303000022100F0100035904FF4B040052283E8E3
:103040001300064830A9CDE93342FEF761FB36B0E4
:1030500010BD000000340140F04402580010025836
:10306000401EB0F1807F10B501D3012010BD4FF09C
:10307000E02460610F21601701F0ACFA0020A0612C
:103080000721216110BD7047704770472DE9F0435B
:1030900090F83C20012A42D0012280F83C2051F8CF
:1030A0000C4BDFF880804FF0000991E8680051E98F
:1030B000022723F44073B1F80CC03B43CF6923F4DB
:1030C00080631343026823F40063234323F4805393
:1030D00043EA050323F4005343EA060323F4804341
:1030E00043EA07030C3923F47023424543EA0C43B7
:1030F00002D00D4CA2420CD18D8C23F47006D1E984
:10310000073446EA055121F08071194321F000731C
:103110002343536480F83C900020BDE8F0830220F4
:10312000FBE700000000014000040140F0B590F80A
:103130003C20012A3BD01F4E012480F83C40022253
:1031400080F83D2002681C4D5368B242D2F808C096
:1031500001D0AA4203D14F6823F470033B430F68A8
:1031600023F070031F4357600268B24213D0B2F1DC
:10317000804F10D0114B9A420DD0114B9A420AD079
:10318000104B9A4207D0AA4205D00F4B9A4202D068
:103190000E4B9A4204D189682CF080031943916048
:1031A000002180F83D4080F83C100846F0BD022028
:1031B000F0BD000000000140000401400004004098
:1031C00000080040000C0040001800400040014092
:1031D00010B5040003D094F83D0010B107E00120C1
:1031E00010BD002084F83C00204600F023F80220A7
:1031F00084F83D002068211D00F0A8FF012084F81C
:10320000480084F83E0084F83F0084F8400084F8C9
:10321000410084F8420084F8430084F8440084F8B4
:10322000450084F8460084F8470084F83D000020FB
:1032300010BD000008B500681149884209D1114845
:10324000016841F001010160006800F00100009098
:1032500008BD0D498842FBD10A480838016841F091
:103260001001016000680022012100F010000090B0
:103270003620FEF735FCBDE808403620FEF722BCBC
:1032800000000140F04402580010004090F83D104A
:10329000012901D001207047174A022180F83D1012
:1032A0000168CB6843F00103CB600068904214D002
:1032B000B0F1804F11D0114988420ED01049884298
:1032C0000BD01049884208D00F49884205D00F49D9
:1032D000884202D00E49884207D181680D4A1140C8
:1032E000062906D0B1F5803F03D0016841F0010105
:1032F0000160002070470000000001400004004011
:1033000000080040000C004000040140001800408C
:10331000004001400700010070B5044690F83C00F1
:103320000025012814D03A4B012684F83C60022085
:1033300084F83D0022689068184020F47F40906037
:10334000086870282FD010DC10F00F0F03D022E097
:103350004FF0020070BD4FEA2012072A1BD2DFE8AF
:1033600002F0535353534B394100B0F1101F4BD06F
:1033700009DCB0F5805F0FD0B0F5005F1ED0B0F56E
:10338000801F08D140E0A0F5801120393CD01029E1
:103390003AD0202938D0012584F83D60002084F8F7
:1033A0003C00284670BD4A682068D1E9021300F04D
:1033B00040FF2068816841F0770109E04A68206891
:1033C000D1E9021300F035FF2068816841F48041A3
:1033D0008160E1E7CA684968206801F0D7F8206891
:1033E000502106E0CA684968206801F0E0F82068CA
:1033F000602100F027FFCFE7CA684968206801F024
:10340000C5F820684021F4E7226801461046F0E73D
:1034100088FFCEFF2DE9F04104000D4603D094F85B
:103420003D0018B108E00120BDE8F081002084F8DB
:103430003C00204600F04CF8244A022084F83D006D
:1034400020688168114081602068211D00F07EFEA7
:10345000226840F20336AF6940F60C4C2B684FF2FD
:10346000F00EA86891680B439169B14341EA0721C6
:103470000843D5E9031720EA0C00D5E9076C20EAD8
:103480000E00D2F820E03F0140EA062668686D6928
:10349000314347EA0C37936023680F4301219F6152
:1034A0002EF0AA0242EA051322681843106284F83B
:1034B000481084F83E1084F83F1084F8441084F8D3
:1034C000451084F83D100020AEE70000F8BFFEFF75
:1034D00030B587B0044614216846FCF751FF294AED
:1034E000002124684FF002032648083AB4F1804FC7
:1034F00026D0254DAC4221D1046844F0020404607A
:10350000006800F002000590106840F002001060B2
:10351000106800F00200059030200090CDE90131E4
:10352000CDE9031319486946FEF7F2F800221D2081
:103530001146FEF7D5FA1D20FEF7C4FA07B030BDDC
:10354000046844F001040460006800F00100059084
:10355000106840F0010010601068012200F00100C6
:10356000059003200090CDE90131CDE90312084810
:103570006946FEF7CDF800221C201146FEF7B0FA8E
:103580001C20D9E7E8440258000400400004025817
:103590000000025870B504464FF0020094F83E2037
:1035A00094F83F5094F8446094F8453021B10429D0
:1035B0000DD0012A1AD113E0012A17D1012E15D1FD
:1035C00084F83E0084F844000021206820E0012DAA
:1035D0000CD1012B0AD184F83F0084F8450014E097
:1035E000012D03D1012E01D1012B01D0012070BD8D
:1035F00084F83E0084F83F0084F8440084F84500D5
:1036000001222068002100F007FE20680122042129
:1036100000F002FE2068016841F001010160002015
:1036200070BD70472DE9F041044600680027C66868
:103630000569A90713D5B10711D5FA1E0261012149
:103640002177206880698007204602D0FFF7E9FFD4
:1036500004E000F0B5F8204600F077F92777680716
:1036600016D5700714D5226802206FF0040111618D
:1036700020772068806910F4407F204602D0FFF751
:10368000D0FF04E000F09CF8204600F05EF92777B8
:10369000280715D5300713D5226804206FF00801DC
:1036A000116120772068C0698007204602D0FFF7AB
:1036B000B8FF04E000F084F8204600F046F92777D0
:1036C000E80616D5F00614D5226808206FF0100120
:1036D000116120772068C06910F4407F204602D035
:1036E000FFF79FFF04E000F06BF8204600F02DF993
:1036F0002777E80708D0F00706D021686FF00100AF
:103700000861204600F022F9280601D4A80408D553
:10371000300606D521686FF4025008612046FFF795
:10372000B3FCE80508D5300606D521686FF4807033
:1037300008612046FFF7A7FC680608D5700606D585
:1037400021686FF040000861204600F017F9A806D4
:103750000AD5B00608D521686FF020000861204620
:10376000BDE8F041FFF791BCBDE8F08110B586B02F
:10377000044614216846FCF703FE0E49206888427F
:1037800016D10D48016841F0100101600068012365
:10379000022200F01000059000204FF40851009123
:1037A0006946CDE90120CDE903030448FDF7B0FFE8
:1037B00006B010BD00000140E0440258001002585D
:1037C000704770B5044690F83C0000260D4601286D
:1037D0000BD0012084F83C000C2A4AD007DC82B1CF
:1037E000042A20D0082A06D131E0022070BD102A18
:1037F00053D0142A63D00126002084F83C003046C0
:1038000070BD206800F028FD2068816941F0080142
:1038100081612068816921F00401816120682A6941
:103820008169114311E0206800F068FD206881691A
:1038300041F4006181612068816921F480618161C6
:1038400020682969826942EA01218161D4E7206800
:1038500000F0A0FD2068C16941F00801C161206845
:10386000C16921F00401C16120682A69C16911435D
:1038700011E0206800F0DAFD2068C16941F40061C0
:10388000C1612068C16921F48061C1612068296932
:10389000C26942EA0121C161AEE7206800F002FE80
:1038A0002068416D41F0080141652068416D21F0BB
:1038B0000401416520682A69416D114311E02068C7
:1038C00000F02AFE2068416D41F4006141652068E6
:1038D000416D21F48061416520682969426D42EAA9
:1038E0000121416588E710B5040003D094F83D003C
:1038F00010B107E0012010BD002084F83C002046F4
:1039000000F022F8022084F83D002068211D00F01C
:103910001DFC012084F8480084F83E0084F83F0034
:1039200084F8400084F8410084F8420084F84300A1
:1039300084F8440084F8450084F8460084F8470081
:1039400084F83D00002010BD7047704700680749AB
:1039500088420AD1064801680648496A018006493A
:103960000968496A4180FCF798BE70470010004022
:10397000C40100241C000024100200247047FEE74C
:103980000D4800210B4A10B5C0E900218160C160DB
:10399000016141618161016241628162C1620163D1
:1039A000FCF71AFF002803D0BDE81040FCF79CBECE
:1039B00010BD00000000024828000024094808B596
:1039C000016841F00201016000680022114600F028
:1039D000020000904620FEF783F8BDE8084046202C
:1039E000FEF770B8D84402582DE9F04F87B0142183
:1039F0006846FCF7C5FC3548016841F010010160DC
:103A0000016801F010010591016841F004010160B5
:103A1000016801F004010591016841F08001016035
:103A2000016801F080010591016841F00101016028
:103A3000016801F001010591016841F00201016096
:103A4000016801F002010591016841F0080101607F
:103A500000684FF40046DFF87890002200F008007C
:103A6000314605904846FDF769FFDFF868A04FF43E
:103A70004C57002239465046FDF760FFDFF858B03A
:103A80004FF44048002241465846FDF757FF0024B6
:103A90000096012569464846CDE901540394FDF797
:103AA00037FE00976946CDE9015450460394FDF76F
:103AB0002FFECDF800806946CDE9015458460394A5
:103AC000FDF726FE07B0BDE8F08F0000E044025885
:103AD0000010025800040258000C025870B5144837
:103AE0004FF480050021114CEB010722C0E90321AE
:103AF000C0E90513C1615A0001626E114162816221
:103B0000C162C0E90D21C163016441648164C16483
:103B100001654165816580E87000FFF79FF9002825
:103B200003D0BDE87040FCF7DFBD70BD003401403C
:103B3000F000002410B59AB000241C21009412A8B3
:103B4000019402940394049405940694FCF718FCE1
:103B50002C2107A8FCF714FC2F48EF222D4940F236
:103B6000E73380E81600C0E9033444618461FFF75D
:103B70002FFB08B1FCF7B8FD4FF4805000902648A9
:103B80006946FFF7C9FB08B1FCF7AEFD2248FFF715
:103B9000AAFE08B1FCF7A8FD1F4804A904940594E7
:103BA0000694FFF7C3FA08B1FCF79EFD12AA602045
:103BB0004FF4FA7182E813001748002212A91594F5
:103BC000169417941894FFF7FCFD08B1FCF78CFDD0
:103BD0001148082212A9FFF7F4FD08B1FCF784FD93
:103BE0004FF4005007940894099401030A94CDE916
:103BF0000B40CDE90E41084807A90D94109411948B
:103C0000FFF744FA08B1FCF76FFD0348FFF7AEFD7C
:103C10001AB010BD000001407801002430B58DB00D
:103C200024216846FCF7ACFB1548002401214FF61F
:103C3000FF72099403238D070A940B94C0E9005482
:103C4000C0E90242046184610093CDE9014103941B
:103C50000494CDE90541694607940894FFF7DAFB1F
:103C600008B1FCF741FD064809A909940B94FFF738
:103C70005DFA002801D0FCF737FD0DB030BD000023
:103C8000C401002430B58DB024216846FCF778FBD0
:103C9000164800244FF6FF72134D099401210A942F
:103CA00003230B94C0E90054C0E90242046184611B
:103CB0000093CDE9014103940494CDE9054169469F
:103CC00007940894FFF7A6FB08B1FCF70DFD074821
:103CD00009A909940B94FFF729FA002801D0FCF7F1
:103CE00003FD0DB030BD00000004004010020024B0
:103CF0003EB510480024632145F6BF52009401945C
:103D00000294C0E902410A4B8461C0E90032FFF726
:103D10005FFA08B1FCF7E8FC064869460094029493
:103D2000FFF704FA002801D0FCF7DEFC3EBD0000DE
:103D3000001000405C020024FEE7FEE77047000030
:103D40002DE9F047454D044689464FF0000A2868A2
:103D5000C04380070AD0414E283E306820F0806082
:103D60003060FDF7F7FD0746B04608E00120BDE8EA
:103D7000F08700BFFDF7EEFDC01B022867D8D8F81A
:103D800000000001F6D4206829684FF4FE0721F4F2
:103D90007C313E0241EA00302860207AA389B4F8E1
:103DA00004C040022D4D2D495B1E227CACF1010C5C
:103DB0001035091DA0F5007080B2521ECCF3080C1E
:103DC00007EA034340EA0C00184306EA0262104384
:103DD00028600868626920F0C000104308600A6823
:103DE000A06922F0200202430A60281D0A6822F01E
:103DF00010020A6002684FF6F873E4699A4342EAD7
:103E0000C40202600868B9F1000F40F010020A60B5
:103E100011D00868B9F1010F11D040F4001008600A
:103E2000D8F80000444640F08060C8F80000FDF774
:103E300091FD05460DE0086840F40020EFE740F4EE
:103E40008010ECE7FDF786FD401B022801D9032016
:103E50008DE720680001F5D5504688E728440258D0
:103E60002DE9F047454D044689464FF0000A286881
:103E7000C04380070AD0414E283E306820F0805071
:103E80003060FDF767FD0746B04608E00120BDE859
:103E9000F08700BFFDF75EFDC01B022867D8D8F889
:103EA00000008000F6D4208829684FF4FE0721F036
:103EB0007C713E0241EA00502860207AA389B4F860
:103EC00004C040022D4D2D495B1E227CACF1010C3B
:103ED0001835091DA0F5007080B2521ECCF3080CF5
:103EE00007EA034340EA0C00184306EA0262104363
:103EF00028600868626920F44060104308600A681E
:103F0000A06922F4007202430A60281D0A6822F4A4
:103F100080720A6002684FF6F873E4699A4342EAD5
:103F2000C40202600868B9F1000F40F480720A60B0
:103F300011D00868B9F1010F11D040F0807008600D
:103F4000D8F80000444640F08050C8F80000FDF763
:103F500001FD05460DE0086840F48000EFE740F4FD
:103F60000000ECE7FDF7F6FC401B022801D9032016
:103F70008DE720688000F5D5504688E72844025830
:103F80007047FDF7EDBC000070B59CB04C21684651
:103F9000FCF7F6F9202113A8FCF7F2F90220FDF74F
:103FA000D1FD214800242149026842F440420260C8
:103FB00002680A6842F001020A60096801F0010122
:103FC0001B9101688904FCD50DF1280C0220099091
:103FD0000521C0228CE80700C6030F9008250D902C
:103FE00001230E90CDE91054CDE9003668461294B5
:103FF000FEF772FC08B172B6FEE740201A903F212E
:104000000301CDE916500322CDE9180313AB13A821
:1040100083E816000421FEF795FA002801D072B655
:10402000FEE71CB070BD0000184802582C04005870
:104030003348F0B5334A016841F4700101601068FB
:1040400000F00F00072804D2106820F00F00C01DF8
:1040500010602D4900202C4C10340B682B4D43F080
:1040600001030B6020600B682B400B60136803F0AA
:104070000F03072B04D9136823F00F03DB1D136014
:10408000214C234A1834234B261D371D20601E4C1B
:10409000214D28343060261D3860371D23603B1DBC
:1040A00035601C1D3A60251D2E1D1860331D2260D1
:1040B0002860326018600A68134B184C22F4802282
:1040C00060330A60186020686FF30F00B0F1005F82
:1040D00003D213490120C1F808010B48D43001680C
:1040E000C9040BD4026843F2D2010E4B42F4805251
:1040F00002601960016821F480510160F0BD000088
:1041000088ED00E000200052004402587FEDF6EAFE
:1041100080020101000202020000FF010010005CA9
:1041200000800051004000520148FFF77BBA0000B8
:10413000C40100240148FFF775BA000010020024F2
:104140000148FFF76FBA00005C0200242DE9F04738
:10415000294B4FF0804A294D02689842284E294F3A
:10416000294C09D0504507D0A84205D0B04203D011
:10417000B84201D0A04205D1D1F804C022F07002AB
:104180004CEA0202DFF884C0DFF884809842DFF84E
:1041900084900FD050450DD0A8420BD0B04209D02A
:1041A000B84207D0A04205D0604503D0404501D0B9
:1041B000484503D1CD6822F440722A438E684D6988
:1041C00022F08002C6620E682A439842866207D0B7
:1041D000A04205D0604503D0404501D0484501D1FB
:1041E000096901630368012143F00403036041612D
:1041F0000260BDE8F08700000000014000040040BC
:1042000000080040000C0040000401400040014054
:10421000004401400048014010B5046A012301F048
:104220001F018B409C4304628A40016A1143016272
:1042300010BD42EA032283680A4323F47F410A4304
:1042400082607047034B82681A400A4342F00701BC
:10425000816070478FFFCFFF2DE9F04FDFF884803A
:10426000214EDFF88890DFF888B0026A036AB04216
:10427000DFF880A022F0020C1F4F23F0010202623F
:10428000426885698B680C6805EA080525F0030516
:1042900043EA0C0344EA050407D0484505D05845D5
:1042A00003D0504501D0B84205D1CD6823F00803B2
:1042B0001D4325F00403B04207D0484505D05845BA
:1042C00003D0504501D0B84205D122F44076D1E95F
:1042D000055235432A434260846149684163036261
:1042E000BDE8F08F8FFFFEFF000001400004014099
:1042F000004001400044014000480140F0B5DFF8B3
:104300007CE01F4C1F4D026A036AA04222F0200687
:1043100023F01003036242688369D1F808C00F6874
:1043200003EA0E0323F4407E46EA0C134EEA072606
:1043300001D0A84206D1CF6823F0800343EA0713D7
:1043400023F04003A0420AD0A84208D00E4CA0425D
:1043500005D00E4CA04202D00D4CA04207D1D1E9AD
:10436000054522F4406242EA840242EA8502426044
:104370008661496881630362F0BD0000FF8FFFFE24
:1043800000000140000401400040014000440140A1
:1043900000480140F0B5DFF87CE01F4D1F4E026A77
:1043A000036AA84222F4007723F48073036243680F
:1043B000C269D1F808C002EA0E020C6822F0030EAE
:1043C00047EA0C2244EA0E0401D0B04206D1CF687D
:1043D00022F4006242EA072222F48062A8420AD054
:1043E000B04208D00E4DA84205D00E4DA84202D0D2
:1043F0000D4DA84207D1D1E9055623F4405343EAB5
:10440000051343EA06134360C4614968C16302624D
:10441000F0BD00008FFFFEFF0000014000040140DE
:10442000004001400044014000480140F0B5046AEA
:10443000026A22F4805202624268C36924F4005482
:10444000DFF848C08E680D6803EA0C03104F23F4B0
:10445000407344EA0634B84243EA05230BD00D4DBD
:10446000A84208D00C4DA84205D00C4DA84202D05D
:104470000B4DA84204D14D6922F4804242EA8512D4
:104480004260C361496801640462F0BDFF8FFFFEB2
:104490000000014000040140004001400044014090
:1044A00000480140F0B5164F164B026A046A984264
:1044B00022F4003524F4803303624268436D0E8990
:1044C0000C6803EA070344EA030445EA06430BD0F9
:1044D0000D4DA84208D00D4DA84205D00C4DA84264
:1044E00002D00C4DA84204D14D6922F4803242EA38
:1044F000052242604465496881650362F0BD0000A1
:104500008FFFFEFF00000140000401400040014019
:104510000044014000480140F0B5164F164B026AB6
:10452000046A984224F48013036222F4001442685F
:10453000436D0E890D6803EA070344EA065443EA13
:1045400005230BD00D4DA84208D00D4DA84205D033
:104550000C4DA84202D00C4DA84204D14D6922F462
:10456000802242EA8522426043654968C16504624F
:10457000F0BD0000FF8FFFFE00000140000401407D
:1045800000400140004401400048014010B5036A6A
:10459000046A23F00A0324F00104046284690B43D3
:1045A00024F0F00141EA02118161036210BD10B5EF
:1045B000036A046A23F0A00324F0100404628469EF
:1045C00043EA011124F4704343EA0232826101623A
:1045D00010BDFEE7090700284FEA116104DB00F176
:1045E000E02080F80014704700F00F0000F1E02098
:1045F00080F8141D704700001FB50024009401943A
:1046000002940394FDF730FA01208DF80C001F216D
:104610008DF8081087228DF809208DF80D008DF88F
:10462000000068468DF80A408DF80E408DF8014074
:1046300001948DF80B408DF80F40FDF7E7F9042049
:10464000FDF720FAFDF794F9FFF79EFCFFF7CCF990
:10465000FFF7B4F9FFF794F9FFF740FAFFF7DEFA36
:10466000FFF710FBFFF744FBFFF764FA05483C2116
:10467000FEF790FF04483C21FEF78CFF0348FEF74D
:1046800005FEFEE7C4010024100200245C020024A1
:104690004FF04070E1EE100A704700061016000659
:1046A00010160000000001020304010203040607C3
:1046B00008090000D4460008000000241C00000087
:1046C000D4020008F04600081C000024EC0800009A
:1046D000F0020008010000001000000000000000CF
:1046E0000090D0030090D003000000000000000004
:040000050800029954
:00000001FF
