:020000040800F2
:1000000000050120D1030008418B00085171000850
:10001000398B00080116000811DF000800000000FD
:1000200000000000000000000000000061DA00088D
:10003000411C000800000000098F000861DB000877
:10004000EB030008EB030008EB030008EB030008D8
:10005000EB030008EB030008EB030008EB030008C8
:10006000EB030008EB030008EB030008EB030008B8
:10007000EB030008EB030008EB030008EB030008A8
:10008000EB030008EB030008EB030008EB03000898
:10009000EB030008EB030008EB030008491C000811
:1000A000EB030008EB030008EB030008EB03000878
:1000B00079DD000889DD0008EB030008EB03000888
:1000C000EB030008EB030008EB030008EB03000858
:1000D000EB030008EB030008EB030008EB03000848
:1000E000EB030008EB03000800000000EB0300082E
:1000F000EB030008EB030008EB030008EB03000828
:10010000EB030008EB030008EB030008EB03000817
:10011000EB030008EB03000899DD0008A9DD0008E7
:10012000EB030008EB030008EB030008EB030008F7
:10013000EB030008EB030008EB030008EB030008E7
:1001400000000000000000000000000000000000AF
:10015000EB030008EB030008E1160008EB030008BE
:10016000EB030008EB030008EB030008EB030008B7
:10017000EB030008EB030008D1160008EB030008AE
:10018000EB030008EB030008EB030008EB03000897
:10019000EB030008EB030008EB030008EB03000887
:1001A000EB030008EB030008EB030008EB03000877
:1001B000EB030008EB030008EB030008EB03000867
:1001C000EB030008EB030008EB030008EB03000857
:1001D000EB030008EB030008EB030008EB03000847
:1001E000EB030008EB030008EB030008EB03000837
:1001F000EB030008EB030008EB030008EB03000827
:10020000EB030008EB030008EB030008EB03000816
:10021000EB030008EB030008EB030008EB03000806
:10022000EB030008EB030008EB03000800000000EC
:10023000EB030008EB03000800000000EB030008DC
:10024000EB030008EB030008EB030008EB030008D6
:10025000EB030008EB030008EB030008EB030008C6
:10026000EB030008EB030008EB030008EB030008B6
:10027000EB030008EB030008EB030008000000009C
:10028000EB030008EB030008EB030008000000008C
:1002900000000000EB03000800F002F800F088F80E
:1002A00014A696E8000CB244B344DA4501D100F03C
:1002B0007FF8BAE80F000FA696E83000A5EB04051A
:1002C00004EB0607AAEB0704A7F101074FEA15158F
:1002D0004FEA3414A4F10104AC4201D300F068F8F1
:1002E00013F0010F18BFFB1A43F0010300F001F8EF
:1002F000DBE718470024010020240100103A24BF46
:1003000078C878C1FAD8520724BF30C830C144BF7A
:1003100004680C6070470000704700000023002450
:1003200000250026103A28BF78C1FBD8520728BF05
:1003300030C148BF0B607047662911F02E816529D6
:1003400011F02B81672911F02881612911F0278193
:10035000692900F0D380642900F0D080752900F06D
:10036000CD806F2900F06481782900F08B810368CB
:10037000DB0928BF41F08001632900F0AA86E32948
:1003800000F0BD86002070471FB511F0F9F800F0AD
:10039000EFFE04000020002111F0DCF8401C60603A
:1003A0000020002111F0C0F8E0601FBD10B510BDA5
:1003B00000F0DEFF1146FFF7E7FF0EF0C1FE00F090
:1003C000FCFF03B4FFF7F2FF03BC01F03FF80000AD
:1003D0000948804709480047FEE7FEE7FEE7FEE7D9
:1003E000FEE7FEE7FEE7FEE7FEE7FEE70448054915
:1003F000054A064B70470000A9DC00089902000876
:1004000000FF002000050120000101200001012063
:100410000FB41CB5074B06AA7B44694600900598AB
:1004200000F035FE0020694600F044FE1CBC5DF87B
:1004300014FB0000990C000070B504468569006843
:10044000C10601D5302600E02026C00707D070BDC8
:10045000D4E9012130469047206A401C20626D1E7D
:10046000F6D570BD70B5044685690078C00707D120
:1004700070BDD4E9012120209047206A401C2062F1
:100480006D1EF6D570BD09684A0501D540B27047AA
:10049000C905FCD500B2704709684A0501D5C0B24C
:1004A0007047C905FCD580B2704770B50C4605464B
:1004B000012A05D02878800600D5EA69002302E0E9
:1004C000012305E05B1C934202D2E05C0028F9D1D5
:1004D000A869E618C01AA861286A18442862284644
:1004E000FFF7AAFF04E0D5E9012114F8010B9047BA
:1004F000B442F8D32846FFF7B5FF70BD2DE9F041AF
:100500000646002410687529314616A510D0FFF75D
:10051000BAFF002802DA404213A507E031688A07D3
:1005200001D512A502E0490704D511A5012401E077
:10053000FFF7B2FF00210A2206F1240709E0B0FB11
:10054000F2FCB0FBF2F302FB1C003030785418468A
:10055000491C0028F3D123462A463046BDE8F04125
:1005600000F0AAB9000000002D0000002B000000E0
:10057000200000002DE9FF5F15468A460446DFF89B
:10058000AC80F8440027D8E900103E46CDE90010C1
:1005900010E03AF816106A4602A800F0BCFD411CB3
:1005A00007D02178890603D5E269391891420DD820
:1005B0000744761C2078800602D5E069B84205DD44
:1005C000AE42E6DB3AF816000028E2D1A069C01B73
:1005D000A0612046FFF730FFD8E90010CDE90010F8
:1005E000002017E03AF818106A4602A800F093FDC0
:1005F000B0F1FF3F81460BD000250DF1080B05E05F
:10060000D4E901211BF8050090476D1C4D45F7D337
:1006100008F10100B0428046E4DB206A38442062E1
:100620002046FFF71FFFBDE8FF9F00001E100100DE
:1006300070B5044621461068FFF72EFF002104F133
:10064000240505E000F007023032C0086A54491C56
:100650000028F7D12068002308A2050708D500F07C
:100660002000084304D0E069012305A2401EE06198
:100670002046BDE8704000F01FB9000000000000F7
:100680003000000070B504460D4621461068FFF7A3
:1006900003FF2188090502D50F4A7A4402E00E4A79
:1006A0007A440E32002104F1240305E000F00F0625
:1006B0000009965D5E54491C0028F7D1207800237C
:1006C000000704D5702D02D009B102231132204653
:1006D000BDE8704000F0F0B80E0F01002DE9F05FAA
:1006E000894604464FF0000ADFF874B1FB44C0F8B5
:1006F00020A02046E1688847002874D0252806D02D
:10070000D4E901219047206A401C2062F1E70026CD
:100710005F462046E16888472028054607DB312DE3
:1007200005D2781910F8200C08B10643F1E7B0079C
:1007300001D526F00406C4F81CA00027C4F818A0B0
:100740002A2D09D0284610F0E7FE38B304EB8708BD
:10075000303DC8F8185019E059F8041B204604EB46
:1007600087029161E1688847012F054618D1E06949
:10077000002820DA26F020061DE0D8F8180000EB4B
:10078000800005EB40003038C8F818002046E168CA
:100790008847054610F0C0FE0028EED1012F0AD090
:1007A0002E2D08D12046E16888477F1C0546022F80
:1007B00046F02006C4DBA069002803DA404246F078
:1007C0000106A061F00701D026F010066C2D0BD0B9
:1007D000682D09D04C2D39D06A2D35D0742D35D0E7
:1007E0007A2D33D016E038E0E1682F46204688475E
:1007F000B842054609D16C2F26D04FF48060E168DD
:10080000064320468847054604E06C2F1AD04FF473
:10081000807006430DB3A5F14100192802D8203598
:1008200046F400664A462946204626604E46FFF7B3
:1008300083FD80B101280BD0F61D26F0070000F1E2
:10084000080956E74020E4E78020D8E70020D6E7F3
:1008500006F104094DE7284652E7206ABDE8F09FFB
:10086000E40E01004FF0000200B513469446964690
:10087000203922BFA0E80C50A0E80C50B1F12001B3
:10088000BFF4F7AF090728BFA0E80C5048BF0CC061
:100890005DF804EB890028BF40F8042B08BF7047BF
:1008A00048BF20F8022B11F0804F18BF00F8012B31
:1008B00070477047704770472DE9F0470D469946DD
:1008C0009246044600F124080168880604D5E069D0
:1008D00021F01001216000E00120A84201DD471B4A
:1008E00000E00027A1697A1902EB0900081AA0614B
:1008F0002078C00602D42046FFF79EFD002608E0BF
:10090000D4E901211AF806009047206A401C761CA1
:1009100020624E45F4DB2078C0060AD52046FFF75A
:100920008BFD06E0D4E9012130209047206A401C6D
:100930002062381EA7F10107F4DC07E0D4E90121A9
:1009400018F805009047206A401C2062281EA5F177
:100950000105F3DC2046FFF785FD2078000602D56F
:100960000220BDE8F0870120FBE72DE9FF4F0C4690
:100970001E464FF0FF378BB0D2E90001DDF86080F2
:100980000A908A46C1F30A5505B93D46002108463A
:100990004FF00000BAF1000F00F4400005DA00EB60
:1009A00080004FF4400101EA50004FEA9059B9F13C
:1009B000010F00DDB9460A9850EA4A000ED044F60D
:1009C0001050A5F2FF3545432F14B8F1000F1ED08B
:1009D0007542291E1EDDC9F100021CE0B8F1010FAD
:1009E0004FF0000001D0302103E0F24305E0215434
:1009F000401CB042FBDB30460022002121540B9901
:100A0000C1F80880C1E900200FB0BDE8F08FBD1B20
:100A10006D1CDEE74A4600DA694206A800F032FCA7
:100A200006AB93E8070003AB83E8070050460A993A
:100A300010F092F98DE80700A0F500501F380090E3
:100A40000398002D0ADD42F21F014A4608440023A4
:100A500003A90390684610F0FBFB09E0A0F50050E5
:100A60004A461F38002303A90390684610F005FC8E
:100A70008DE807000004000C03D04FF0FF30410860
:100A800000E01046B8F1000F03D000220092154696
:100A90001EE0751E05D400F06FFB303262556D1EEE
:100AA000F9D5B3460122084302D000227F1C04E09E
:100AB0002078302801D100227F1E002A099784D097
:100AC0001DE0112D07DA00F057FB303262556D1C26
:100AD00050EA0102F5D1084302D00098C8B10EE0F7
:100AE0000021681E05E0235C625C63542254401EB2
:100AF000491C8142F7DBAB46A81B401E0990002031
:100B000004F80B000B98099AC0F80880C0E9002B84
:100B10007AE711264FF0000857E72DE9F04F884695
:100B20000446D21D22F0070191B0D1E90001CDE9C0
:100B30000A0110F0D9FC02460B98C00F01D02D20FD
:100B400007E02068810701D52B2002E0202101EA7F
:100B5000C000032A099001D0072A05DB034641465D
:100B6000204600F04FFB0BE12078800601D5E069BC
:100B700000E00620B8F1650F814606D0B8F1660F97
:100B800018D0B8F1670F70D131E00020B9F1110F22
:100B9000009001DB112301E009F101030AAA01A978
:100BA0000CA8FFF7E2FEDDE90C70002609F1010553
:100BB000834647E001204B4600904FF000470AAAC9
:100BC00001A90CA8FFF7D1FEDDE90DB00C995D4637
:100BD000002610B909F101000D18B9EB050003D486
:100BE000C0F1FF3609F10105A5EB09002BE0B9F1D1
:100BF000010F01DA4FF001090020B9F1110F009047
:100C0000484601DD112300E003460AAA01A90CA809
:100C1000FFF7ABFEDDE90C704D46002683462078D9
:100C200000070AD4AB4500DA5D4601A8012D04DDBA
:100C3000411911F8011C302907D04F4502DA17F18C
:100C4000040F04DA012082460FE06D1EEEE7002F4C
:100C500002DCED1B3E4403E0781CA84200DD7D1C55
:100C6000B81B00F1010A4FF000472078000703D4B9
:100C7000AA4501DB4FF0FF3A0021B7F1004F0DF11B
:100C800043088DF8431024D002202B23002F01DAD3
:100C90007F422D230A21021EA0F1010000DC5FB17A
:100CA00097FBF1FC97FBF1F201FB1C7C17460CF162
:100CB000300C08F801CDEEE7A8F10100037021889F
:100CC000090501D5452100E06521A0F1010800F8E2
:100CD000011C09980FA9A1EB0807FF1D00B1012015
:100CE000411901EBEA70A1693844081A401EA0615D
:100CF0002078C00602D42046FFF79EFB099828B151
:100D0000D4E901219047206A401C20622078C00667
:100D100022D52046FFF790FB1EE0002E04DBB345F2
:100D200002DD01A8805D00E03020D4E90121904778
:100D3000206A401C2062761CAAF101005FEA000ACA
:100D40000AD100F015FAC0680168405CD4E90121BD
:100D50009047206A401C2062281EA5F10105DCDCBA
:100D600007E0D4E9012118F8010B9047206A401CE4
:100D70002062381EA7F10107F3DC2046FFF772FB63
:100D8000032011B041E600002DE9F04F04460D4666
:100D9000D21D22F0070089B0D0E9009748463946B5
:100DA00010F0A2FB0246F80F01D02D2307E02068C7
:100DB000810701D52B2302E0202101EAC0038DF831
:100DC00020300BB1012000E00020032A824601D030
:100DD000072A04DB2946204600F014FA3FE1207878
:100DE000800601D40D2500E0E569C7F30A560D2DF4
:100DF00049DA00214FEA175B08464FF00000002F48
:100E000000F4400007DA00EB80004FF4400100EBF3
:100E1000D07001EA60008115012901DD4FF0FF313A
:100E200000224FEA850CBCF1180F06D31346ACF133
:100E300018004FF08052C24003E04FF4801323FAB1
:100E40000CF30CF10C0CBCF1200F04D3ACF1200C12
:100E500009FA0CF001E007FA0CF000294FF0004805
:100E600001DD18B90FE00ED140450CD319EB020992
:100E70005F4121B9404502D19F4329EA0209BBEBFA
:100E8000175F00D0761C2088000502D57B48784487
:100E900002E07A487844193808AA302302F80A3068
:100EA000037C0AF10101002E0AF1020A53546A463A
:100EB00002DC4FF0300101E04FF031014FF001084A
:100EC0008DF8001002D0A6F2FF3603E059EA470180
:100ED00000D06B4E002D02DC2178090704D54FF0BD
:100EE00002082E218DF80110C44600210BE0C7F343
:100EF00003433F01C35C491C6D1E02F808300529FD
:100F000008F1010801DA002DF1DC00210CE000EB12
:100F10001973491C1B786D1E082902F808304FEA26
:100F2000091908F1010801DA002DF0DC21688B06AF
:100F300002D516E0A8F10108E04505DD02EB080343
:100F400013F8013C302BF5D0B8F1000F09DD02EBAE
:100F5000080313F8013C2E2B03D1090701D4A8F193
:100F60000108002D05DD3E2102F808106D1E08F174
:100F70000108407C002E02F8080008F1010804DA9C
:100F80002D20764202F8080002E02B2002F808002B
:100F90000A214FF47A70864208F101080BDB96FBB8
:100FA000F0F3303302F8083096FBF0F308F1010853
:100FB00000FB136601E0642E0CDB642096FBF0F36B
:100FC000303302F8083096FBF0F308F1010800FB1B
:100FD000136601E00A2E06DB96FBF1F0303002F8D2
:100FE000080008F1010896FBF1F001FB10603030B9
:100FF00002F80800A16908F1010808EB050202EBFC
:101000000A00081AA0612078C00602D42046FFF723
:1010100013FA216A08AE01EB0A00206204E0D4E969
:10102000012116F8010B9047BAF1010AF7D2207896
:10103000C00602D52046FFF7FFF96E4609E016F814
:10104000010B3E280FD0D4E901219047206A401CB3
:101050002062B8F10108F2D22046FFF703FA09B086
:101060000320BDE8F08F206A2844206203E0D4E921
:101070000121302090476D1EEBD3F8E76607010091
:1010800002FCFFFF01694A1C02610878704700B545
:101090008FB0CDE901310021059105497944CDE9B1
:1010A000031011466846FFF719FB0FB000BD0000A2
:1010B000E5FFFFFF0A6802F8010B0A60704710B5F0
:1010C000436913B1AFF3008001E0FFF7EEF90120AF
:1010D00010BD127800F124010A7000224A7001222A
:1010E000EDE711684FF0FF32E9E710B5436913B13E
:1010F000AFF3008001E0FFF73DFA012010BD128838
:1011000000F1240182840022C2840122EDE71168EB
:101110004FF0FF32E9E72DE9F04116460C4605464F
:1011200000F01EF8036893F80101012807D0FF2C96
:1011300012D8185D80B101202C70BDE8F081D3F881
:1011400007013246214603F20713C7182846BC465A
:10115000BDE8F041002360474FF0FF30EDE70000AD
:1011600010B500F005F8001D10BD00BFE903010037
:10117000004870475000002030B5B0F10A0271F10C
:1011800000034FEA900E4EEA817EB0EB0E0061EB59
:1011900091014FEA101E4EEA017E10EB0E0041EB6A
:1011A00011114FEA102E4EEA016E10EB0E0041EBCA
:1011B00011214FEA104E4EEA014E10EB0E0041EBAA
:1011C0001141401841F100014FEAD00040EA41705E
:1011D0004FEAD1014FEA810444EA907410EB800594
:1011E00044EB01046D1944EB0404521BA3414FF07E
:1011F000000348BF0A3200D530BD401C41F1000158
:1012000030BD00002DE9F0411F4604460326016869
:10121000072A01F4006004DB08B116A505E016A555
:1012200003E008B115A500E015A521F0100020602D
:10123000A069C01EA0610FB1401EA0612046FFF74B
:10124000FBF84FB1D4E9012138469047206A401C91
:101250002062C01C206206E0206AFAE7D4E901217E
:1012600015F8010B9047761EF8D22046FFF7FAF8E2
:10127000BDE8F0814E414E006E616E00494E460061
:10128000696E66002DE9F047814616468AB03548FA
:1012900078440DC88DE80D0032487844801C03ACBA
:1012A0000DC884E80D0041F69B300844372190FBBF
:1012B000F1F290FBF1F5A5F1800501FB12041B3C56
:1012C00002D56442012000E00020DFF898A08046AB
:1012D0000027FA44AAF1BE0A0EE0E0070AD032461F
:1012E000684607EB470101230AEB81010FF0C5FFB8
:1012F0008DE8070064107F1C002CEED1194F7F444D
:10130000AE3F19E0E80715D007EB04100DF1180AFD
:1013100090E80E008AE80E00C068F04201D19819EA
:1013200008903246012306A903A80FF0A6FF03ABDD
:1013300083E807006D10641C002DE3D14FF001031A
:1013400032466946B8F1000F03A802D00FF080FFC3
:1013500001E00FF092FFC9E90001C9F808200AB0C6
:10136000BDE8F087F403010000487047300000201A
:101370007546FFF7F9FFAE4605006946534620F073
:101380000700854618B020B5FFF730F8BDE82040CB
:101390004FF000064FF000074FF000084FF0000B31
:1013A000AC46ACE8C009ACE8C009ACE8C009ACE8A0
:1013B000C00921F007018D46704710B50446AFF310
:1013C00000802046BDE81040FEF7FBBF0000000093
:1013D00030B44FF0013C50F8042BCCFA52F451F8E1
:1013E000043BD51A20D1FCB950F8042BCCFA52F4A6
:1013F00051F8043BD51A17D1B4B950F8042BCCFAE4
:1014000052F451F8043BD51A0ED16CB950F8042BA4
:10141000CCFA52F451F8043BD51A05D1002CDAD09D
:1014200030BC4FF00000704729BAB1FA81F111F0D9
:101430001801D1F120008440F2D1CA40CB4012F013
:10144000FF0213F0FF0330BCD01A70470149182087
:10145000ABBEFEE72600020070470000000000005F
:10146000F0B54FF6C0604DF6003CC2F2000000231C
:10147000C2F2000C017840F2D000C2F20000A0F1EC
:10148000030E0A025CF823106FF00704754600BFD4
:101490000E1908343789BA424FF0000798BF4FF051
:1014A000FF37EF707789BA424FF0000798BF4FF0CF
:1014B000FF3705F8047FB789BA424FF0000798BF9D
:1014C0004FF0FF376F70F689B2424FF0000698BFB9
:1014D0004FF0FF36B4F5B87FAE70D9D10CEB830175
:1014E00000254C68083C00BF34F8086F47190435E4
:1014F000B2424FF0000698BF4FF0FF3687F8BC604D
:101500006688B2424FF0000698BF4FF0FF3687F86A
:10151000BD60A688B2424FF0000698BF4FF0FF367C
:1015200087F8BE60E688B2424FF0000698BF4FF0E1
:10153000FF36BC2D87F8BF60D6D18C686FF0BB0535
:10154000083C00BF34F8086F4719B2424FF000065C
:1015500098BF4FF0FF3687F834626688B2424FF08A
:10156000000698BF4FF0FF3687F83562A688B24272
:101570004FF0000698BF4FF0FF3687F83662E688D6
:10158000B2424FF0000698BF4FF0FF36043587F89F
:101590003762D7D1C9686FF0BB04083931F8085FEA
:1015A0000619AA424FF0000598BF4FF0FF3586F8A4
:1015B000F0524D88AA424FF0000598BF4FF0FF351A
:1015C00086F8F1528D88AA424FF0000598BF4FF07F
:1015D000FF3586F8F252CD88AA424FF0000598BF39
:1015E0004FF0FF35043486F8F352D7D104330EF5AB
:1015F0003C7E782B00F53C707FF444AFF0BD0000DA
:10160000FEE70000000000000021A0F82910C0F84B
:101610002510704700000000806B816C496D022925
:1016200006D0012180F83510C16C41F04001C16441
:1016300000F052BB0000000010B5846BA26BA06CE0
:10164000002A01680A680BD0A36BDB071AD112F4D9
:10165000002217D0C968E26B01EBC201002219E039
:1016600010032DD40868000319D4E06BD4E91023CB
:1016700003EB80000861A263A06B216C884212D04A
:101680001DE000BF0A68120309D40969E26B01EB8F
:10169000C201012200F048FDA06B0138A063A06BDD
:1016A000216C88420BD12068C16841F00101C16002
:1016B0000068800758BF10BD012084F8350010BDB8
:1016C000606CC860A06B216C8842ECD0F7E700002A
:1016D00046F2BC10C2F2000000F01EBB0000000089
:1016E00046F20C20C2F2000001F09AB9000000009E
:1016F00040F20F42D0F800C0C4F20202944511DC5F
:101700006F22C4F20202944522DC3F22C4F202029C
:10171000944539DC1022C4F2020294455AD02822A2
:1017200054E000BF40F26F42C4F2020294451BDC59
:1017300040F23F42C4F2020294452DDC40F21042D6
:10174000C4F20202944545D040F228423EE000BF78
:101750009F22C4F20202944528DC7022C4F20202E5
:10176000944537D0882231E040F29F42C4F2020211
:10177000944523DC40F27042C4F20202944529D021
:1017800040F2884222E000BF4022C4F202029445A7
:1017900020D058221AE000BF40F24042C4F20202B8
:1017A000944517D040F2584210E000BFA022C4F286
:1017B000020294450ED0B82208E000BF40F2B842C1
:1017C000C4F20202944505D040F2A042C4F20202E3
:1017D000944517D10CF0F8024AF6AB23103ACAF63A
:1017E000AA23A2FB03310AA35F2AC1F302115B5CA7
:1017F00040F2FF312CEA0101C36588BF04318165E5
:10180000084670472CF0FF0181650846704700BF0D
:10181000000610160006101680B540F20F4ED0F8E4
:1018200000C0C4F2020EF44514DC40F26F0EC4F2A4
:10183000020EF44524DC40F23F0EC4F2020EF445E1
:101840003EDC40F2100EC4F2020EF44561D040F2CC
:10185000280E5BE040F26F4EC4F2020EF4451FDC2E
:1018600040F23F4EC4F2020EF44533DC40F2104E1B
:10187000C4F2020EF4454CD040F2284E46E000BFC0
:1018800040F29F0EC4F2020EF4452DDC40F2700EC1
:10189000C4F2020EF4453CD040F2880E36E000BFA0
:1018A00040F29F4EC4F2020EF44527DC40F2704E27
:1018B000C4F2020EF4452CD040F2884E26E000BF60
:1018C00040F2400EC4F2020EF44522D040F2580E0F
:1018D0001CE000BF40F2404EC4F2020EF44518D0A6
:1018E00040F2584E12E000BF40F2A00EC4F2020EC9
:1018F000F4450ED040F2B80E08E000BF40F2B84EFA
:10190000C4F2020EF44504D040F2A04EC4F2020E1E
:10191000F445CCF804308068402805D1CCF8082084
:10192000CCF80C1080BD00BFCCF80810CCF80C200F
:1019300080BD00000000000070B540F26F44D0F898
:1019400000C0C4F20204D0F858E0A4451ADC9F2578
:10195000C4F20205AC4533DC5725C4F20205AC45A0
:101960005ADC1025C4F20205AC4500F09880282509
:10197000C4F20205AC4500F092804025C4F2020595
:101980008AE000BF45F22F45C5F60205AC452DDCC7
:1019900040F2B745C4F20205AC454BDC40F270455D
:1019A000C4F20205AC457AD040F28845C4F2020583
:1019B000AC4574D040F2A045C4F202056CE000BF13
:1019C00040F22745C4F20205AC4543DCA025C4F231
:1019D0000205AC4563D0B825C4F20205AC455ED023
:1019E00040F21045C4F2020556E000BF45F26B45D7
:1019F000C5F60205AC453FDC45F23045C5F60205AB
:101A0000AC454CD045F24445C5F60205AC4546D040
:101A100045F258453EE000BF5825C4F20205AC45EA
:101A20003DD07025C4F20205AC4538D08825C4F2FB
:101A3000020531E040F2B845C4F20205AC452ED0B3
:101A400045F20845C5F60205AC4528D045F21C45CF
:101A500020E000BF40F22845C4F20205AC451ED08C
:101A600040F24045C4F20205AC4518D040F258455A
:101A7000C4F2020510E000BF45F26C45C5F6020550
:101A8000AC450CD045F29445C5F60205AC4506D0F0
:101A900045F28045C5F60205AC4540F0D080456E64
:101AA000C66E002E866E6E601CBFD0E91C566E603E
:101AB000A44515DC9F24C4F20204A4452CDC572461
:101AC000C4F20204A44551DC1024C4F20204A4456B
:101AD0007AD02824C4F20204A44575D040246FE0D3
:101AE00045F22F44C5F60204A44529DC40F2B74470
:101AF000C4F20204A44545DC40F27044C4F202047E
:101B0000A44561D040F28844C4F20204A4455BD0ED
:101B100040F2A04454E000BF40F22744C4F2020463
:101B2000A4453FDCA024C4F20204A4454CD0B82450
:101B3000C4F20204A44547D040F2104440E000BF84
:101B400045F26B44C5F60204A44555DC45F2304429
:101B5000C5F60204A44561D045F24444C5F602042A
:101B6000A4455BD045F2584454E000BF5824C4F269
:101B70000204A44528D07024C4F20204A44523D052
:101B800088241DE040F2B844C4F20204A4451BD0EE
:101B900045F20844C5F60204A4453FD045F21C4472
:101BA00038E000BF40F22844C4F20204A4450BD040
:101BB00040F24044C4F20204A44505D040F2584427
:101BC000C4F20204A4453AD18468C06D00F01F003D
:101BD0003F2505FA00F0CEF80800DCF80000402CA4
:101BE00020F48020CCF80000CCF8043023D1CCF8CD
:101BF0000820CCF80C1070BD45F26C44C5F6020408
:101C0000A4450BD045F28044C5F60204A44505D096
:101C100045F29444C5F60204A44510D1C46D0125D3
:101C200004F01F04806805FA04F4CEF8044040284C
:101C3000CCF80430DBD0CCF80810CCF80C2070BD08
:101C40007047000000000000202002F0DDB8000016
:101C5000EFF3108072B600BFFEE700000000000046
:101C600090F834C0BCF1010F4FF0020C17D080B5D2
:101C700080F835C0DDF808C0D0F800E041EA024144
:101C800043EA0C434FF0000CCEF82430CEF820107D
:101C9000012180F8351080F834C0BDE880406046EE
:101CA000704700000000000090F8341001294FF048
:101CB00002010CD080F8351001680A6842F0040275
:101CC0000A60012180F83510002180F834100846A0
:101CD0007047000000000000704700000000000096
:101CE00010B502F089F940F2A804C2F2000461685C
:101CF000401AC0087C2809D902F07EF9606060783B
:101D0000A070012060700120207010BD607801304B
:101D100060700120207010BD70B50446006841F26B
:101D200019660569C0F60006690721D4A8072DD4F5
:101D3000E8063BD4280705D52068082141612046E4
:101D400000F0EEF9E80708BF70BD20680168890758
:101D500003D5C16821F01E01C160C16821F00101F5
:101D6000C160012141612046BDE87040FFF7B8BF66
:101D700004214161E06C40F00200E06484F8351019
:101D8000A06C066500F0F0FCA807D1D521680222FE
:101D9000A06C4A61E16C41F00101E164042184F826
:101DA0003510066500F0E0FCE806C3D52068102178
:101DB0004161204600F058F82807BDD4C2E7000072
:101DC00000284DD0B0B590F8351019B9044600F090
:101DD0004FF82046022180F83510D0F818C04FF295
:101DE0000705BCF1000FCFF6E0751CBF0021416272
:101DF00090E80A40C268102B0C6804EA05040C60E5
:101E0000D0E9045442EA0402046A42EA0502456A3F
:101E100042EA0E0242EA0402846A42EA0502C56A04
:101E200042EA0402046B42EA05020D6842EA040237
:101E300042EA050242EA0C0242EA03020A6001D1C8
:101E4000C2698A61CA6842F01E02CA600021C16488
:101E5000012280F83520BDE8B0400846704700BF39
:101E600001207047000000007047000000000000E3
:101E70002DE9F04786B040F200080446C4F6020897
:101E80000068002740450597CDE903770297019741
:101E900002D006B0BDE8F08744F2E04040F20049CD
:101EA000C5F60200C5F6020901AE4FF0020A50F86D
:101EB000041C0D2541F0010140F8041C50F8041CDD
:101EC00001F0010100910099016841F010010160E9
:101ED000016801F0100100910099016841F00101D1
:101EE0000160016801F0010100910099016841F071
:101EF00004010160016801F004010091009901688A
:101F000041F008010160016801F0080100910099A9
:101F1000016841F0020101600068314600F00200F2
:101F2000009000987320019009F54060CDE902A768
:101F30000497059501F074FF50203146CDE9010A60
:101F400008F180500595CDE9037701F069FFC020C5
:101F50003146CDE9010A09F580600595CDE90377A1
:101F600001F05EFF08203146CDE9010A09F5006065
:101F70000595CDE9037701F053FF80203146CDE987
:101F8000010A48460595CDE9037701F049FF46F27D
:101F90000C2540F2B840C2F20005C4F202002860ED
:101FA0004B20C5E901074FF4806028614FF4805051
:101FB00068614FF48040A8614FF48070EF60C5E91C
:101FC00007070420686203202F63C5E90A07284633
:101FD00001F032F908B1FFF73BFE4E200521002247
:101FE000A564AC6302F098FB4E2002F081FB06B0C2
:101FF000BDE8F0870000000070B582B0044690F89C
:10200000340001284FF0020000F086804FF0010EEE
:1020100084F834E084F835000026D4F800C0B6EB2C
:10202000134FA06CDCF8005045F48045CCF800500C
:10203000DCF8005025F00205CCF80050DCF8005028
:1020400041EA0501CCF8001041F2396141F219650D
:10205000C0F60001C163C0F60005C0E91356A663CF
:10206000E663266466640BD10CF1280101F014FCD0
:10207000002848D04020E064012084F8350048E082
:102080004164C4F838E0E3636264E16BB1F5803F1A
:1020900029D30021E36B5B08E363A36B5B00A363BD
:1020A000E36BB3F5803F1ED3E36B5B08E363A36B85
:1020B0005B00A363E36BB3F5803F21BFE36B5B0879
:1020C000E363A36B21BF5B00A363E36BB3F5803FC6
:1020D00009D3E36B5B08E363A36B5B00A363E36B70
:1020E000B1EB134FD6D1A16B0239A163A16B21646F
:1020F000E16BE66B009602EB81030CF1280100F026
:102100001BF80028B6D12068016841F00101016088
:102110000020002184F8341002B070BD00000000DF
:1021200070470000000000001023002A08BF0C23A5
:1021300002680020D15070472DE9F04381B08768D4
:10214000802F07D14FF480714165012001B0BDE8B7
:10215000F08300BF90F83470012F03D1022001B04A
:10216000BDE8F083012780F8347090F83570012FB6
:1021700028D1022780F835700027476540F20F48C4
:102180000568C4F2020840F26F49DDF820C04FF044
:102190003F0E082745454FF48026C4F2020919DC9A
:1021A0006F24C4F20204A54226DC3F24C4F20204D8
:1021B000A5423DDC1024C4F20204A5425FD02824CD
:1021C00058E000BF4FF400614165012001B0BDE857
:1021D000F08300BF4D451BDC40F23F44C4F20204D3
:1021E000A5422DDC40F21044C4F20204A54246D0C0
:1021F00040F228443EE000BF9F24C4F20204A542FE
:1022000028DC7024C4F20204A54238D0882431E0CE
:1022100040F29F44C4F20204A54223DC40F2704421
:10222000C4F20204A5422AD040F2884422E000BF52
:102230004024C4F20204A54221D058241AE000BF71
:1022400040F24044C4F20204A54218D040F258447F
:1022500010E000BFA024C4F20204A5420FD0B824AD
:1022600008E000BF40F2A044C4F20204A54206D038
:1022700040F2B844C4F20204A54240F06D822C68DA
:1022800034432C602B61D0E9163404F01F040EFA9D
:1022900004F6DE5163460446FFF7BEFA206845F2B5
:1022A0002F414845C5F602011ADC9F22C4F2020202
:1022B00090422FDC5722C4F20202904256DC1022D8
:1022C000C4F20202904200F094802822C4F202027A
:1022D000904200F08E804022C4F2020286E000BFED
:1022E00088422DDC40F2B742C4F2020290424BDC3D
:1022F00040F27042C4F2020290427AD040F2884228
:10230000C4F20202904274D040F2A042C4F202022F
:102310006CE000BF40F22742C4F20202904243DC6C
:10232000A022C4F20202904263D0B822C4F2020298
:1023300090425ED040F21042C4F2020256E000BF6A
:1023400045F26B42C5F6020290423FDC45F2304254
:10235000C5F6020290424CD045F24442C5F6020254
:10236000904246D045F258423EE000BF5822C4F2A7
:10237000020290423DD07022C4F20202904238D054
:102380008822C4F2020231E040F2B842C4F20202F2
:1023900090422ED045F20842C5F60202904228D063
:1023A00045F21C4220E000BF40F22842C4F2020283
:1023B00090421ED040F24042C4F20202904218D035
:1023C00040F25842C4F2020210E000BF45F26C42F3
:1023D000C5F6020290420CD045F29442C5F60202C4
:1023E000904206D045F28042C5F60202904240F08B
:1023F000A581626EE36E002BA36E53601CBFD4E90F
:102400001C235360404511DC6F22C4F2020290424B
:102410001EDC3F22C4F20202904235DC1022C4F2DC
:102420000202904257D0282250E000BF48451BDCF2
:1024300040F23F42C4F2020290422DDC40F21042D0
:10244000C4F20202904246D040F228423EE000BF71
:102450009F22C4F20202904228DC7022C4F20202DF
:10246000904238D0882231E040F29F42C4F202020A
:10247000904223DC40F27042C4F2020290422AD021
:1024800040F2884222E000BF4022C4F202029042A1
:1024900021D058221AE000BF40F24042C4F20202AA
:1024A000904218D040F2584210E000BFA022C4F27F
:1024B000020290420FD0B82208E000BF40F2B842BA
:1024C000C4F20202904206D040F2A042C4F20202DC
:1024D000904240F0338102680B2363F344020260B0
:1024E000426942F080024261226C0AB9A26C1AB1C0
:1024F000082203681A430260484519DC9F21C4F290
:10250000020188422EDC5721C4F20201884255DCC8
:102510001021C4F20201884200F092802821C4F206
:102520000201884200F08C804021C4F2020185E063
:1025300088422DDC40F2B741C4F2020188424BDCF4
:1025400040F27041C4F20201884279D040F28841E1
:10255000C4F20201884273D040F2A041C4F20201E9
:102560006CE000BF40F22741C4F20201884243DC24
:10257000A021C4F20201884262D0B821C4F2020153
:1025800088425DD040F21041C4F2020156E000BF23
:1025900045F26B41C5F6020188423FDC45F230410D
:1025A000C5F6020188424BD045F24441C5F602010E
:1025B000884245D045F258413EE000BF5821C4F260
:1025C000020188423CD07021C4F20201884237D017
:1025D0008821C4F2020131E040F2B841C4F20201A4
:1025E00088422DD045F20841C5F60201884227D025
:1025F00045F21C4120E000BF40F22841C4F2020134
:1026000088421DD040F24041C4F20201884217D0F6
:1026100040F25841C4F2020110E000BF45F26C41A3
:10262000C5F6020188420BD045F29441C5F602017D
:10263000884205D045F28041C5F60201884274D136
:10264000216E0A68D20303D50A6842F480720A60D8
:10265000E16E19B10A6842F480720A60404511DCEB
:102660006F21C4F2020188421EDC3F21C4F2020144
:10267000884235DC1021C4F20201884255D028215D
:1026800050E000BF48451BDC40F23F41C4F202016C
:1026900088422DDC40F21041C4F20201884244D04D
:1026A00040F228413EE000BF9F21C4F2020188426F
:1026B00028DC7021C4F20201884236D0882131E042
:1026C00040F29F41C4F20201884223DC40F2704193
:1026D000C4F20201884228D040F2884122E000BFC3
:1026E0004021C4F2020188421FD058211AE000BFE5
:1026F00040F24041C4F20201884216D040F25841F3
:1027000010E000BFA021C4F2020188420DD0B82120
:1027100008E000BF40F2B841C4F20201884204D090
:1027200040F2A041C4F202018842016841F0010177
:102730000160002001B0BDE8F08300BF02680523FE
:1027400063F343020260226C1AB9A26C002A3FF4C0
:10275000D3AE0422CDE600BF4FF0010E042748F2AD
:1027600020068CE500000000F0B190F83510022939
:1027700018D180B540F20F420168C4F202029142C2
:1027800014DC6F23C4F20203994225DC3F23C4F218
:10279000020399423CDC1023C4F2020399425DD04B
:1027A000282357E0802141650120704740F26F43A4
:1027B000C4F2020399421BDC40F23F43C4F202031D
:1027C00099422DDC40F21043C4F20203994245D0F5
:1027D00040F228433EE000BF9F23C4F20203994227
:1027E00028DC7023C4F20203994237D0882331E0F9
:1027F00040F29F43C4F20203994223DC40F270434B
:10280000C4F20203994229D040F2884322E000BF7B
:102810004023C4F20203994220D058231AE000BF9B
:1028200040F24043C4F20203994217D040F25843A9
:1028300010E000BFA023C4F2020399420ED0B823D7
:1028400008E000BF40F2B843C4F20203994205D049
:1028500040F2A043C4F20203994275D191424FF075
:10286000040280F8352011DC6F20C4F2020081429E
:1028700022DC3F20C4F20200814239DC1020C4F285
:102880000200814259D0282054E000BF40F26F403E
:10289000C4F2020081421BDC40F23F40C4F202005D
:1028A00081422DDC40F21040C4F20200814244D04B
:1028B00040F228403EE000BF9F20C4F20200814267
:1028C00028DC7020C4F20200814236D0882031E03A
:1028D00040F29F40C4F20200814223DC40F270408B
:1028E000C4F20200814228D040F2884022E000BFBA
:1028F0004020C4F2020081421FD058201AE000BFDD
:1029000040F24040C4F20200814216D040F25840EA
:1029100010E000BFA020C4F2020081420DD0B82018
:1029200008E000BF40F2B840C4F20200814204D087
:1029300040F2A040C4F202008142086820F0010089
:102940000860002080BD00BF0A6822F00E020A6005
:1029500045F25742C5F6020291420A6822F001028E
:102960000A600FDC45F22F42C5F60202914219DCE3
:1029700045F20842C5F60202914229D045F21C42B6
:1029800022E000BF45F27F42C5F60202914213DC0D
:1029900045F25842C5F60202914219D045F26C4206
:1029A00012E000BF45F23042C5F6020291420FD05C
:1029B00045F2444208E000BF45F29442C5F60202E7
:1029C000914205D045F28042C5F6020291421AD1E9
:1029D000D0E9181CD0E916E30A6822F480720A6074
:1029E00003F01F01012202FA01F1CEF80410816EFA
:1029F000CCF80410C16E31B10A6822F480720A600A
:102A0000D0E91C124A60012180F83510016D0022C6
:102A1000002980F8342094D08847002080BD000031
:102A20002DE9F04782B00021019140F2080148F2FF
:102A3000B513C2F20001C1F64E33856D40F26F4905
:102A40000A680168C4F202092E68A2FB03284945FE
:102A50002A6815DC9F22C4F2020291422CDC572224
:102A6000C4F20202914251DC1022C4F202029142ED
:102A70007BD02822C4F20202914276D040226FE03D
:102A800045F22F43C5F60203994229DC40F2B743D1
:102A9000C4F20203994245DC40F27042C4F20202E1
:102AA000914262D040F28842C4F2020291425CD06C
:102AB00040F2A04254E000BF40F22742C4F20202BA
:102AC00091423FDCA022C4F2020291424DD0B822D2
:102AD000C4F20202914248D040F2104240E000BFEE
:102AE00045F26B43C5F60203994275DC45F230436B
:102AF000C5F60203994200F0828045F24443C5F6D0
:102B0000020399427BD045F2584373E05822C4F245
:102B10000202914229D07022C4F20202914224D0D2
:102B200088221DE040F2B843C4F2020399421CD04F
:102B300045F20843C5F60203994260D045F21C43B2
:102B400058E000BF40F22842C4F2020291420CD089
:102B500040F24042C4F20202914206D040F2584292
:102B6000C4F20202914240F05383C26D082302F086
:102B70001F0240F20F4A9340C4F2020A334200F0AF
:102B8000DE8051454FF0040412DC6F27C4F20207C7
:102B9000B9426DDC3F27C4F20207B94200F39C80C2
:102BA0001027C4F20207B94200F0BD802827B5E023
:102BB000494569DC40F23F47C4F20207B94200F3DD
:102BC000938040F21047C4F20207B94200F0AB8094
:102BD00040F22847A2E000BF45F26C43C5F602036D
:102BE00099420CD045F28043C5F60203994206D0C3
:102BF00045F29443C5F60203994240F009830B68FD
:102C0000C76D07F01F070426BE40164218BF13F019
:102C1000040423D10226BE40164218BF13F002045A
:102C200042D1FA40120740F1F38213F0080200F09B
:102C3000EF820A6822F00E020A60012101FA07F20F
:102C40006A60416580F83510C16C00294FF00002C0
:102C500080F8342040F0D882DAE200BF1A046E60B7
:102C600034D49A0636D40A6822F004020A6031E0AD
:102C70009F27C4F20207B94240DC7027C4F2020762
:102C8000B94250D0882749E040F29F47C4F202077A
:102C9000B9423BDC40F27047C4F20207B94242D06D
:102CA00040F288473AE000BF1A046E6000F1B48237
:102CB0009A0600F1B5820A6822F00A020A60012130
:102CC00080F83510002180F83410A9E2D90301D42E
:102CD000816C98E2016C96E24027C4F20207B94287
:102CE00021D058271AE000BF40F24047C4F2020743
:102CF000B94218D040F2584710E000BFA027C4F2F4
:102D00000207B9420FD0B82708E000BF40F2A04741
:102D1000C4F20207B94206D040F2B847C4F2020733
:102D2000B94218BF08240F68274208D00F6827F05F
:102D300004070F60AB60436D43F00103436501235B
:102D4000934033426FD0514510DC6F27C4F2020725
:102D5000B9421DDC3F27C4F20207B94234DC102718
:102D6000C4F20207B94256D028274FE049451BDC80
:102D700040F23F47C4F20207B9422DDC40F210474F
:102D8000C4F20207B94246D040F228473EE000BFF5
:102D90009F27C4F20207B94228DC7027C4F2020759
:102DA000B94238D0882731E040F29F47C4F2020789
:102DB000B94223DC40F27047C4F20207B9422AD07C
:102DC00040F2884722E000BF4027C4F20207B94220
:102DD00021D058271AE000BF40F24047C4F2020752
:102DE000B94218D040F2584710E000BFA027C4F203
:102DF0000207B9420FD0B82708E000BF40F2A04751
:102E0000C4F20207B94206D040F2B847C4F2020742
:102E1000B94240F007824F693F0604D5AB60436D6D
:102E200043F0020343650423934033426FD051457E
:102E300010DC6F27C4F20207B9421DDC3F27C4F241
:102E40000207B94234DC1027C4F20207B94256D057
:102E500028274FE049451BDC40F23F47C4F20207F8
:102E6000B9422DDC40F21047C4F20207B94246D005
:102E700040F228473EE000BF9F27C4F20207B94254
:102E800028DC7027C4F20207B94238D0882731E025
:102E900040F29F47C4F20207B94223DC40F2704778
:102EA000C4F20207B9422AD040F2884722E000BFAC
:102EB0004027C4F20207B94221D058271AE000BFC8
:102EC00040F24047C4F20207B94218D040F25847D6
:102ED00010E000BFA027C4F20207B9420FD0B82704
:102EE00008E000BF40F2A047C4F20207B94206D092
:102EF00040F2B847C4F20207B94240F09B810F6824
:102F0000BF0704D5AB60436D43F004034365102352
:102F100003FA02F2324200F0828051454FF008037A
:102F200010DC6F27C4F20207B9421DDC3F27C4F250
:102F30000207B94234DC1027C4F20207B94256D066
:102F400028274FE049451BDC40F23F47C4F2020707
:102F5000B9422DDC40F21047C4F20207B94246D014
:102F600040F228473EE000BF9F27C4F20207B94263
:102F700028DC7027C4F20207B94238D0882731E034
:102F800040F29F47C4F20207B94223DC40F2704787
:102F9000C4F20207B9422AD040F2884722E000BFBB
:102FA0004027C4F20207B94221D058271AE000BFD7
:102FB00040F24047C4F20207B94218D040F25847E5
:102FC00010E000BFA027C4F20207B9420FD0B82713
:102FD00008E000BF40F2A047C4F20207B94206D0A1
:102FE00040F2B847C4F20207B94218BF04230F6881
:102FF0001F4214D0AA600A6852030A6808D4D20596
:1030000008D40A6822F008020A60016C21B906E0BF
:10301000110351D4016C11B1044688472046C16D9B
:1030200001F01F02202101FA02F3334200F0AF80C9
:1030300001681027514511DC6F26C4F20206B14227
:103040001EDC3F26C4F20206B14239DC1026C4F26F
:103050000206B1425BD0282654E000BF49451BDC84
:1030600040F23F46C4F20206B14231DC40F2104663
:10307000C4F20206B1424AD040F2284642E000BF04
:103080009F26C4F20206B1422CDC7026C4F202066E
:10309000B1423CD0882635E040F29F46C4F2020699
:1030A000B14227DC40F27046C4F20206B1422ED093
:1030B00040F2884626E000BF816C0029ACD1AEE723
:1030C0004026C4F20206B14221D058261AE000BFC1
:1030D00040F24046C4F20206B14218D040F25846CF
:1030E00010E000BFA026C4F20206B1420FD0B826FD
:1030F00008E000BF40F2A046C4F20206B14206D08A
:1031000040F2B846C4F20206B14218BF02270E6868
:103110003E423CD0AB6090F83530042B0B681DD19B
:1031200023F016030B604B6923F080034B61036CA3
:103130000BB9836C1BB10B6823F008030B603F21B4
:103140009140A960012180F83510016D00294FF0F0
:10315000000280F8342057D15AE000BF5A030A68B1
:103160000CD4D2050ED40A6822F010020A600121A4
:1031700080F83510002180F8341003E0110301D4E9
:10318000416C00E0C16B11B1044688472046416D97
:1031900000293DD0416DC90734D0042180F8351095
:1031A00001684FEA98220B6823F001030B60019B32
:1031B0000133019393421AD80B68DB0717D0019BA8
:1031C00001330193934212D80B68DB070FD0019BA8
:1031D0000133019393420AD80B68DB0707D0019BA8
:1031E00001330193934202D80B68DB07DFD10968F2
:1031F000C9074FF0030108BF012180F835100021F5
:1032000080F83410C16C19B102B0BDE8F04708472E
:1032100002B0BDE8F08700BFD90301D4416CF2E7EA
:10322000C16BF0E70B680423934033427FF4FFAD9A
:103230006DE600BF0B686AE62DE9F041044600F038
:10324000DBFEFCB140F26F4805462068C4F202087C
:1032500040451BDC9F21C4F20201884232DC572129
:10326000C4F20201884259DC1021C4F202018842F2
:1032700000F083802821C4F20201884200F07D80A2
:10328000402175E00120BDE8F08100BF45F22F41EB
:10329000C5F60201884229DC40F2B741C4F20201BE
:1032A000884247DC40F27041C4F20201884264D097
:1032B00040F28841C4F2020188425ED040F2A0414F
:1032C00056E000BF40F22741C4F20201884241DCCF
:1032D000A021C4F2020188424FD0B821C4F20201F9
:1032E00088424AD040F2104142E000BF45F26B41B3
:1032F000C5F60201884200F3B38045F23041C5F6BD
:103300000201884200F0BF8045F24441C5F6020147
:10331000884200F0B88045F25841AFE05821C4F22D
:103320000201884229D07021C4F20201884224D0CF
:1033300088211DE040F2B841C4F2020188421CD04D
:1033400045F20841C5F60201884200F09C8045F232
:103350001C4193E040F22841C4F2020188420CD0A3
:1033600040F24041C4F20201884206D040F2584186
:10337000C4F20201884240F01B81022184F835101A
:10338000002184F83410016821F00101016000BFC0
:1033900020680168C9070DD000F02EFE401B0628EA
:1033A000F6D320206065032084F835000120BDE8B5
:1033B000F08100BF48F23F0204F108060168CFF631
:1033C0001062114065694CCE1143A2691943E3694B
:1033D0003143266A0D43616A2B43042943EA0603FD
:1033E00043EA020303D1D4E90B652E43334341F290
:1033F0000006C5F600463668B6F1005F0FD3656873
:10340000A5F129061F2E00F235820127B7403F267D
:10341000CCF2C036374200F02D8243F480130360B3
:103420000429436923F0070341EA030140F0DC80EB
:10343000D4E90A53002B41EA050100F0D580B2F52A
:10344000005F00F0B780002A40F0C080022D00F03D
:10345000C080012D00F0B480002D00F0BA80C3E0E0
:1034600045F26C41C5F6020188420CD045F280411C
:10347000C5F60201884206D045F29441C5F6020124
:10348000884240F0958004F1080E022184F835103E
:10349000002184F834100168A3699EE80450A2F169
:1034A0008005E769B5FA85F566696D09402A4FEA36
:1034B000853543EA07026FF3101142EA060208BF9E
:1034C000102541EADC0142EA0E02236A294341EA5F
:1034D000D20141EA131140F80819C0B2CD21484386
:1034E0003C2101EA9020E0652046FEF701F9E16DFC
:1034F000012201F01F0102FA01F1416020684045FC
:1035000000F381809F21C4F20201884214DC57211C
:10351000C4F20201884227DC1021C4F20201884271
:1035200000F0C7802821C4F20201884200F0C18067
:103530004021C4F20201B9E040F22741C4F2020185
:10354000884221DCA021C4F20201884200F0B1804F
:10355000B821C4F20201884200F0AB8040F2104171
:10356000C4F20201A2E000BF5821C4F20201884265
:1035700000F09F807021C4F20201884200F099801F
:103580008821C4F2020191E040F22841C4F2020114
:10359000884200F08E8040F24041C4F2020188422D
:1035A00000F0878040F25841C4F202017EE000BF83
:1035B0004020F7E6032D17D8DFE805F00E0B0E02CA
:1035C000A3F1C072B2FA82F2520904E0032D03D3D0
:1035D0000AD1C3F300623AB140206065012084F84B
:1035E0003500BDE8F08100BF41612046FEF780F85C
:1035F000E16D3F2201F01F0102FA01F181602068B4
:1036000040457FF77FAF45F22F41C5F60201884262
:1036100016DC40F2B741C4F20201884226DC40F2D7
:103620007041C4F20201884243D040F28841C4F2A2
:10363000020188423DD040F2A041C4F2020135E0CF
:1036400045F26B41C5F6020188421FDC45F230416C
:10365000C5F6020188422CD045F24441C5F602016C
:10366000884226D045F258411EE000BF40F2B841E2
:10367000C4F2020188421CD045F20841C5F602019D
:10368000884216D045F21C410EE000BF45F26C4165
:10369000C5F6020188420CD045F29441C5F60201FC
:1036A000884206D045F28041C5F60201884240F0CA
:1036B000D98045F2574C45F6FC0EC5F6020CC5F60E
:1036C000020E60450EDC45F22F41C5F6020188422C
:1036D00018DC45F20841C5F60201884228D045F2BF
:1036E0001C4121E045F27F41C5F60201884213DC0E
:1036F00045F25841C5F60201884219D045F26C41A5
:1037000012E000BF45F23041C5F6020188420FD0F9
:1037100045F2444108E000BF45F29441C5F602017C
:10372000884205D045F28041C5F60201884247D162
:1037300000F0FC014CF6CD420839CCF6CC42A1FB9E
:103740000212AEF1FC05AEF17C061309A26803F08B
:103750001F01802A4FF0010205EB8305256602FA5E
:1037600001F26666A26605D1002060602860726082
:103770001EE000BF6368D9B25F1E072F2960726028
:1037800016D84E1E082E19D260450EF1440237DCC1
:1037900045F22F41C5F60201884241DC45F208415D
:1037A000C5F60201884251D045F21C414AE000BFF3
:1037B00000206067C4E91B0054E000BFE06E4CE0ED
:1037C00000F0F8014AF6AB221039CAF6AA22A1FB92
:1037D000021240F20F43C4F2020308251109984275
:1037E00003F1AA060B4688BF05EB121340F600054D
:1037F000B042C4F2020505F1800628BF0B46A5E7DA
:1038000045F27F41C5F60201884213DC45F258417A
:10381000C5F60201884219D045F26C4112E000BFA2
:1038200045F23041C5F6020188420FD045F24441CD
:1038300008E000BF45F28041C5F60201884205D08C
:1038400045F29441C5F6020188421BD10EEB83007C
:103850000121E066B1402267616700210160D4E97F
:103860001C01416000206065012184F83510BDE82D
:10387000F08100BFA5F14F07042F38BF43F4801338
:10388000CDE500BF40F60000C4F2020000F1FC0EDE
:1038900000F5A072DAE7000030B110B590F83440BE
:1038A000012C03D1022010BD01207047012480F8B3
:1038B000344090F83540012C2CD1022480F835405A
:1038C00000244465D0F800C0DCF8004024F0010476
:1038D000CCF800400446FEF72FF840F20F4C206869
:1038E000C4F2020C40F26F416045C4F2020119DCDF
:1038F0006F23C4F20203984226DC3F23C4F2020382
:1039000098423DDC1023C4F2020398425FD0282382
:1039100058E000BF4FF400614165002180F8341089
:10392000012010BD88421BDC40F23F43C4F2020379
:1039300098422DDC40F21043C4F20203984246D074
:1039400040F228433EE000BF9F23C4F202039842A6
:1039500028DC7023C4F20203984238D0882331E077
:1039600040F29F43C4F20203984223DC40F27043CA
:10397000C4F2020398422AD040F2884322E000BFFA
:103980004023C4F20203984221D058231AE000BF1A
:1039900040F24043C4F20203984218D040F2584328
:1039A00010E000BFA023C4F2020398420FD0B82356
:1039B00008E000BF40F2B843C4F20203984206D0C8
:1039C00040F2A043C4F20203984240F02F81036802
:1039D0000B2262F344030360226C1AB108230268CD
:1039E0001A430260884219DC9F22C4F2020290420C
:1039F00032DC5722C4F20202904259DC1022C4F297
:103A00000202904200F096802822C4F20202904204
:103A100000F090804022C4F2020289E045F22F4279
:103A2000C5F6020290422DDC40F2B742C4F2020217
:103A300090424BDC40F27042C4F20202904279D0D4
:103A400040F28842C4F20202904273D040F2A04297
:103A5000C4F202026CE000BF40F22742C4F202024C
:103A6000904243DCA022C4F20202904262D0B8220B
:103A7000C4F2020290425DD040F21042C4F202024F
:103A800056E000BF45F26B42C5F6020290423FDCB1
:103A900045F23042C5F6020290424BD045F2444214
:103AA000C5F60202904245D045F258423EE000BFC2
:103AB0005822C4F2020290423CD07022C4F20202A8
:103AC000904237D08822C4F2020231E040F2B8427C
:103AD000C4F2020290422DD045F20842C5F602021D
:103AE000904227D045F21C4220E000BF40F228421D
:103AF000C4F2020290421DD040F24042C4F20202DF
:103B0000904217D040F25842C4F2020210E000BFC7
:103B100045F26C42C5F6020290420BD045F2944247
:103B2000C5F60202904205D045F28042C5F6020277
:103B3000904274D1236E1A68D20303D51A6842F4F6
:103B400080721A60E36E1BB11A6842F480721A60C8
:103B5000604511DC6F21C4F2020188421EDC3F2166
:103B6000C4F20201884235DC1021C4F2020188420D
:103B700055D0282150E000BF88421BDC40F23F4175
:103B8000C4F2020188422DDC40F21041C4F202016D
:103B9000884244D040F228413EE000BF9F21C4F259
:103BA0000201884228DC7021C4F20201884236D02A
:103BB000882131E040F29F41C4F20201884223DCB7
:103BC00040F27041C4F20201884228D040F288419C
:103BD00022E000BF4021C4F2020188421FD05821D8
:103BE0001AE000BF40F24041C4F20201884216D000
:103BF00040F2584110E000BFA021C4F20201884207
:103C00000DD0B82108E000BF40F2B841C4F2020173
:103C1000884204D040F2A041C4F202018842016807
:103C200041F001010160002010BD00BF02680523C2
:103C300063F343020260226C002A3FF4D3AE0423F4
:103C4000CDE6000000000000B0B5044600F0D4F955
:103C500040F200010546C2F20001621C097818BF5B
:103C60000C4400BF00F0C8F9401BA042FAD3B0BD1D
:103C7000B0B500F0C1F940F290050446C2F200056B
:103C80002978022946D0012928D0002940F0B480A3
:103C900040F200400121C5F6020000F095F9E96804
:103CA0000128A4EB010040F08D80B0F5167FC0F034
:103CB000A38000F0A1F940F22C019FED511AC2F24D
:103CC0000001E860EA7C91ED000A687C30EE010AB0
:103CD0002A7581ED000AA97C3AE000BF40F200405D
:103CE0000121C5F6020000F06FF9E9680128A4EB94
:103CF000010047D1B0F5167FC0F07E8000F07CF95E
:103D000095ED010A9FED3E1A30EE010AE86085ED5F
:103D1000010A19E040F200400121C5F6020000F05E
:103D200053F9E9680128A4EB01003BD1B0F5167FF7
:103D300062D300F061F995ED020A9FED311A30EE81
:103D4000010AE86085ED020AEA7CA97C2A75687C94
:103D5000E974002AA8744FF001026A744CD1012959
:103D600008BF002848D1287845F256510130414318
:103D7000090C01EB4101401A2870002028612875C8
:103D8000B0BD00BFB0F5167F36D300F035F995ED24
:103D9000010A9FED1A1A30EE010AE86085ED010A6A
:103DA00022E000BFB0F5167F38BFB0BD00F024F9A7
:103DB00095ED020A9FED111A30EE010AE86085EDDB
:103DC000020A11E0B0F5167F16D300F015F940F2A3
:103DD0002C019FED0A1AC2F20001E86091ED000A81
:103DE00030EE010A81ED000AE87C2875B5F8110073
:103DF000688200206874B0BDB0BD00BFCDCCCCBD22
:103E0000CDCCCC3D000000008821C5F600010A6839
:103E1000024208BF70470860FFF72ABF0000000099
:103E20002DE9F04F83B00F68002F00F0C98000F13A
:103E3000264642F2004506F1FF76C5F602050A2243
:103E4000A8424FEAB62540F2040C08BF092200F14F
:103E500020030093092DC5F6000C38BF4FEAB622A7
:103E6000002400264FF0000801920AE008F1010842
:103E70000F6837FA08F206F1020604F1040400F0B4
:103E80009F80012202FA08FE17EA0E09EED0D1F84F
:103E900004B003220BF00307B2407D1E6FEA020A52
:103EA000012D11D88268CD6802EA0A02B5402A4382
:103EB0008260CBF30015426822EA0E0205FA08F58B
:103EC0002A43426004E000BF032F01D103271FE013
:103ED000C2688D6802EA0A02B540022F42EA050272
:103EE000C26015D16FF0030204F01C0502EA580B02
:103EF000009A0F2352F80BE0AB400F692EEA030340
:103F0000AF403B4342F80B30D1F804B00BF003074D
:103F1000026807FA06F302EA0A021BF4403F42EA8B
:103F200003020260A2D044F2F44340F2084EC5F608
:103F30000203C5F6000E0F251A6842F002021A604D
:103F40001A6802F00202029228F00302029B04F0B7
:103F50000C0352F80E709D40AF43019D05FA03F328
:103F60003B4342F80E304FF0B04EDEF800204B6875
:103F700042EA0907DD0258BF22EA09079D02CEF88E
:103F80000070DCF8002042EA090758BF22EA09075E
:103F90009D03CCF80070DCF8802042EA090758BF86
:103FA00022EA0907DB03CCF88070DCF87C2042EAC7
:103FB000090758BF22EA0907CCF87C7056E700BF12
:103FC00003B0BDE8F08F00000069084018BF012071
:103FD0007047000000000000002A08BF090481614A
:103FE000704700000000000041F20000C5F60040EC
:103FF0000068000C704700004FF6BC60C2F2000081
:10400000006870470000000090F84120202A03D18A
:1040100090F84020012A01D102207047242280F824
:1040200041200268136823F001031360136823F42E
:1040300080531360136819431160116841F0010146
:104040001160202180F84110002180F840100020EC
:10405000704700000000000090F84120202A03D1A2
:1040600090F84020012A01D102207047242280F8D4
:1040700041200268136823F001031360136823F4DE
:10408000706343EA01211160116841F00101116080
:10409000202180F84110002180F840100020704756
:1040A00010B310B590F8411031B9002180F84010DC
:1040B000044600F055FA2046242180F8411090E88B
:1040C0001210C3680A68012B22F001020A6024F072
:1040D00070620A618A6822F400428A6006D14CF458
:1040E00000428A600CE000BF01207047022B4CF4B4
:1040F00004428A6004D14A6842F4006203E000BFCF
:104100004A6822F400624A6000F1100C4A6842F0EA
:10411000007242F400424A60CA6822F40042CA6057
:104120009CE81C101A4342EA0422CA60026A42EA6E
:104130000C020A600A6842F001020A600021416430
:10414000202280F84120016380F84210002010BD39
:104150002DE9F04F81B0044690F84100202803D1AA
:1041600094F84000012803D1022001B0BDE8F08F8F
:104170000D4698461746012084F84000FFF73CFFA3
:10418000216806468A6912041BD4212084F8410064
:10419000102084F8420000206064676249F6000C39
:1041A000A4F82A80CFF6004C6063608DB0F5807F64
:1041B00022D3FF2222854FF0807324E08869000417
:1041C000E3D519212046324602F0C6FF002840F010
:1041D0008580FFF711FF801B21681A28EED38869BC
:1041E0000004EBD5606C40F020006064202084F86F
:1041F0004100012083E000BF628D2285002A00F08B
:1042000087804FF0007317F8010B88626762608D3A
:1042100001386085501E2085D2B228466FF39F205A
:1042200040EA02404A68184302EA0C02104340F494
:10423000005048600A9F608D002849D06FF39F2589
:1042400040F2000B05F100784FF0FF090CF5806A91
:10425000C0F2FF1B0DE000BF608D21682085C0B259
:104260004A6848EA004002EA0A0210434860608D4A
:1042700070B320463946324603F0D2F870BB606A0C
:10428000216810F8012B8A626062608D01386085B8
:10429000208D01382085618D0029E8D00004E6D109
:1042A0008021002220463B46009603F005F8A8B97D
:1042B000608DB0F5807FCFD32068A4F82890416846
:1042C00001EA0A01294341EA0B014160CFE700BF3F
:1042D00020463946324603F063F818B1012001B098
:1042E000BDE8F08F206820214EF60003C161CFF6B3
:1042F000006342681A404260002084F841100021A7
:1043000084F8421084F8401001B0BDE8F08F00BF7F
:10431000486808222B4600EA0C0062F39F231843EA
:1043200040F0007085E700002DE9F04F83B00446AF
:1043300090F84100202807D10C9F4FB10D9E3EB14F
:1043400094F8400001280BD1022003B0BDE8F08FA3
:104350004FF400706064012003B0BDE8F08F00BF2F
:104360009A4693468846012084F84000FFF744FEB1
:10437000216805468A69120449D4222084F8410044
:10438000402084F842005FFA8AF04FF000096FF392
:104390009F28C4F84490676248EA0040668549F661
:1043A0000006C4F83490CFF600464A68CDF808807D
:1043B0003240DDF8388010442A4600F5005048604D
:1043C0002046414603F02CF8C0B9BAF1010F20682D
:1043D00009D04FEA1B218162204641462A4603F05C
:1043E0001FF858B920685FFA8BF1816240210022E2
:1043F00020464346009502F05FFF48B384F84090A2
:10440000012003B0BDE8F08F88690004B5D51921FB
:1044100020462A4602F0A0FE00289CD1FFF7ECFDC2
:10442000401B21681A28EFD388690004ECD5606C22
:1044300040F020006064202084F84100002084F8CF
:10444000420084F84000012003B0BDE8F08F00BFB7
:10445000608D40F2000AC0F2FF1AB0F5807F09D3E8
:1044600020680AF5105350F8041F01EA0602FF21E4
:104470000AE000BF618D2068CAB250F8043F3340A3
:1044800043EA02420AF59233029F1A4307F1007988
:104490004FF0FF0B06F580663A43026021850BE082
:1044A000608D21682085C0B24A6849EA00403240E8
:1044B00010434860608DA8B3042100222046434683
:1044C000009502F0F9FE00287FF445AF2068616A8C
:1044D000406A0870218D606A01306062481E208544
:1044E000618D01396185618D0029E3D00004E1D13E
:1044F0008021002220464346009502F0DDFE002880
:104500007FF429AF608DB0F5807FC9D32168A4F80E
:1045100028B0486800EA06020298104340EA0A0000
:10452000C7E700BF204641462A4602F039FF00286F
:104530007FF411AF206820214EF60003C161CFF651
:10454000006342681A40426084F84110002084F8F9
:10455000420084F8400003B0BDE8F08F0000000086
:10456000B0B5B8B0044602A80830B821002533958C
:10457000CDE93655CDE93455FCF774F945F600011F
:104580002068C4F20001884202D038B0B0BD00BF3C
:104590000820029002A8039500F026F908B1FDF763
:1045A00057FB44F2E04433A9C5F60204206840F00A
:1045B00002002060206800F00200019001984FF492
:1045C00040603390122034900020CDE93500042063
:1045D000379040F20040C5F60200FFF721FCA068CA
:1045E00040F48000A060A06800F480000190019871
:1045F00038B0B0BD0000000040F200004FF6BC61D2
:10460000C2F20000C2F2000100780A68104408609B
:10461000704700000000000080B5032000F0ACF8F7
:1046200000F096FF44F2184142F28253C5F60201AF
:10463000C0F601030A68C2F303229A5C096801F01C
:104640000F0102F01F02595CD04040F20C02C2F28E
:10465000000201F01F0120FA01F1116040F208018F
:10466000C2F2000108600F2000F00AF800281CBF09
:10467000012080BD00F02CF8002080BD000000006B
:10468000B0B540F20005C2F200052978F1B1044648
:1046900040F20800C2F200004FF47A72B2FBF1F16E
:1046A0000068B0FBF1F001F013FD0F2C01464FF054
:1046B00001000AD8002918BFB0BD4FF0FF3000221A
:1046C000214600F029F800206C60B0BD0120B0BD8B
:1046D00081B044F2F440C5F60200016841F00201E5
:1046E0000160006800F002000090009801B070477F
:1046F000002848BF704700F01F01012202FA01F1B3
:104700004EF20012C0F34A10CEF2000242F820101E
:10471000704700000000000070B54EF60C5C4FF0D2
:10472000FF36CEF2000C00F1604505F56445DCF87B
:104730000030C3F3022E8EF00703042B28BF04239E
:10474000BEF1030406FA03F321EA030100F00F03AC
:1047500038BF0024043B0028634406FA04F048BF35
:1047600003F10C05A14022EA000008430001287073
:1047700070BD0000000000004EF60C514FF6FF0324
:10478000CEF200010A681A4060F30A2242F080600B
:1047900040F0FD7008607047B0B544F60C05C5F6F2
:1047A000020529684907296806D401F00701081A9B
:1047B00018BF0120B0BD00BF21F0070108432860E9
:1047C000FFF71AFC044600BF55F8080C800407D414
:1047D000FFF712FC001BB0F57A7FF5D90120B0BDC0
:1047E0000020B0BD000000002DE9F0470446C0786D
:1047F00044F22C480007C5F6020828D5A06E4FEAFF
:10480000305103292AD8DFE801F0030B131B00BF46
:10481000D8F8001041F40031C8F8001010E000BFD3
:1048200004F10800022104F0BFFE064680B906E04C
:1048300004F12800022104F04BFF064640B9A06EA7
:10484000D8F8241021F440110843C8F824000026A9
:104850006078C00706D135462FE000BF012660789A
:10486000C007F8D0A06D042858D83546DFE800F01E
:1048700004140E0B0B0000BFD8F80000354640F4BE
:104880000030C8F800002F46C5B90DE004F128003B
:10489000002104F01DFF04E004F10800002104F0F1
:1048A00083FE05462F464DB9D8F82400A16D20F0AF
:1048B000070000250843C8F82400374660788007C1
:1048C00031D5E06D4FEAB01004285FD8DFE800F082
:1048D00004140E0A0A0000BFD8F8000040F40030AB
:1048E000C8F800002E46FDB90EE000BF04F1280014
:1048F000002104F0EDFE04E004F10800002104F0C2
:1049000053FE05462E467DB9D8F82400E16D20F40B
:10491000E07000250843C8F8240004E001250127C1
:1049200060788007CDD43E466078400733D5D4F810
:10493000A8004FEA7050042860D8DFE800F00313A5
:104940000D090900D8F8000040F40030C8F8000054
:10495000A9460DBB0EE000BF04F12800002104F0C1
:10496000B7FE04E004F10800002104F01DFE054636
:10497000A9468DB9D8F82C00D4F8A81020F460000E
:1049800000250843C8F82C0005E000BF01250126DA
:1049900060784007CBD4B1466078000734D5D4F8AE
:1049A000AC004FEA306004285ED8DFE800F0031363
:1049B0000D090900D8F8000040F40030C8F80000E4
:1049C0002F4615BB0EE000BF04F12800002104F0C3
:1049D0007FFE04E004F10800002104F0E5FD054637
:1049E0002F4695B9D8F82C00D4F8AC1020F0E06030
:1049F00000250843C8F82C0006E000BF01254FF051
:104A0000010960780007CAD44F46E078800730D5A6
:104A1000E06C4FEA3010032820D8DFE800F00903EB
:104A2000150900BFD8F8000040F40030C8F80000B5
:104A30002E46ADB9D8F82000E16C20F030000025FA
:104A40000843C8F8200014E004F10800022104F033
:104A5000ABFD05462E461DB9ECE700BF012501263A
:104A60006078C00609D434E001250127E07880078A
:104A7000CED43E466078C0062BD5206E4FEA30304B
:104A8000042839D8DFE800F004140E0A0A0000BF39
:104A9000D8F8000040F40030C8F800002F46CDB927
:104AA0000EE000BF04F12800002104F011FE04E034
:104AB00004F10800002104F077FD05462F464DB9AA
:104AC000D8F82400216E20F4E04000250843C8F8FF
:104AD000240037466078800635D5606E4FEA304056
:104AE000052815D8DFE800F0041A0E04040400BFFE
:104AF0002E46DDB91EE000BF012501276078800643
:104B0000EBD420E004F12800012104F0E1FD0AE0EB
:104B1000012501266078400619D449E004F1080017
:104B2000012104F041FD05462E461DB16078400686
:104B30000DD43DE0D8F82400616E20F4E02000257B
:104B40000843C8F824003E466078400630D5D4F8C3
:104B5000B0004FEA307005280ED8DFE800F00313EC
:104B6000070303032F46ADB918E000BF04F1280086
:104B7000012104F0ADFD0AE001250127607800065F
:104B80001AD43CE004F10800012104F00DFD0546B3
:104B90002F461DB1607800060ED430E0D8F82C0006
:104BA000D4F8B01020F0E04000250843C8F82C00ED
:104BB00037466078000622D5206F58B1B0F1005F0B
:104BC0000CD0B0F1805F37D1D8F8000040F400304D
:104BD000C8F800002E469DB908E000BF04F10800A7
:104BE000012104F0E1FC05462E464DB9D8F8240019
:104BF000216F20F0405000250843C8F824003E46AD
:104C0000E078C0071DD0A06C032855D8DFE800F07D
:104C100008024A08D8F8000040F40030C8F8000044
:104C2000A9467DB9D8F82000A16C20F0030000252A
:104C30000843C8F8200004E001250126E078C007F9
:104C4000E1D1B146A078400602D44F4618E000BF3B
:104C5000D8F8D40340F48070C8F8D403FFF7CCF937
:104C6000064600BFD8F8D403C00507D4FFF7C4F93F
:104C7000801B6428F6D90325032701E02F46FDB1E8
:104C80002078C00700F06F80E06F4FEAF000052841
:104C90004ED8DFE800F0035347030303002D2E46F0
:104CA00054D157E004F10800022104F07DFC0546D0
:104CB000002DA946C6D1B5E701254FF00109C1E78E
:104CC000D8F84410D4F8B400414011F4407F11D01A
:104CD000D8F84410D8F8442042F48032C8F8442070
:104CE000D8F8442021F4407122F48032C8F84420DE
:104CF000C8F84410B0F5807F40F0E082FFF77CF9FF
:104D0000064641F2883A0325032700BFD8F844003D
:104D1000800700F1D182FFF76FF9801B5045F5D96C
:104D2000AEE700BF04F12800012104F0D1FC0AE045
:104D3000012501262078800719D446E004F10800F7
:104D4000012104F031FC05462E461DB12078800774
:104D50000DD43AE0D8F82800E16F20F038000025A3
:104D60000843C8F828003E46207880072DD5A06F5C
:104D700005280FD8DFE800F004140804040400BF7D
:104D80002F46ADB918E000BF04F12800012104F05E
:104D90009FFC0AE0012501272078400719D447E04D
:104DA00004F10800012104F0FFFB05462F461DB168
:104DB000207840070DD43BE0D8F82800A16F20F000
:104DC000070000250843C8F8280037462078400728
:104DD0002ED5D4F8940005280ED8DFE800F0031390
:104DE000070303032E46ADB918E000BF04F1280005
:104DF000012104F06DFC0AE00125012620788006DF
:104E00001AD44BE004F10800012104F0CDFB054663
:104E10002E461DB1207880060ED43FE0D8F82C0035
:104E2000D4F8941020F0070000250843C8F82C009F
:104E30003E462078800631D5D4F890004FEA307095
:104E400005280FD8DFE800F004140804040400BFAC
:104E50002F46ADB918E000BF04F12800022104F08C
:104E600037FC0AE001250127207840061AD44BE0E0
:104E700004F10800002104F097FB05462F461DB100
:104E8000207840060ED43FE0D8F82800D4F89010DF
:104E900020F0E04000250843C8F828003746207875
:104EA000400631D5D4F89C004FEAB02005280FD831
:104EB000DFE800F004140804040400BF2E46ADB976
:104EC00018E000BF04F12800022104F001FC0AE010
:104ED00001250126207800061AD44EE004F10800CE
:104EE000002104F061FB05462E461DB12078000626
:104EF0000ED442E0D8F82C00D4F89C1020F4E050F6
:104F000000250843C8F82C003E462078000634D51A
:104F1000D4F8A0004FEA7030052815D8DFE800F07B
:104F2000041A0E04040400BF2F46E5B120680107EF
:104F300027D4C1063ED4000355D477E004F12800FD
:104F4000022104F0C5FB0AE00125012720680107C2
:104F5000EFD516E004F10800002104F025FB05461A
:104F6000002D2F46E2D1D8F82C00D4F8A01020F460
:104F7000604000250843C8F82C0037462068010728
:104F8000D7D5D4F88400B0F5805F09D104F12800AA
:104F9000022104F09DFB002818BF0127D4F88400EB
:104FA000D8F8281021F440510843C8F82800206898
:104FB000C106C0D5D4F89800B0F5807F09D104F1BE
:104FC0002800022104F084FB002818BF0127D4F830
:104FD0009800D8F82C1021F440710843C8F82C0030
:104FE0002068000322D5D4F8A400B0F5003F11D00A
:104FF000B0F5803F08D0002844D104F1080000211A
:1050000004F0D2FA05E000BF04F12800022104F008
:105010005FFB05462E4655B9D8F82C00D4F8A410ED
:1050200020F4403000250843C8F82C003E46A07804
:1050300040072CD5D4F88800B0F5401F0BD0B0F550
:10504000001F0BD0B0F5801F2AD1D8F8000040F423
:105050000030C8F800002F46D5B907E004F1280059
:10506000012104F035FB05462F468DB9D8F82800FC
:10507000D4F8881020F4401000250843C8F8280010
:1050800005E000BF01250126A0784007D2D43746AD
:10509000A078C00709D13E462168880015D532E0C6
:1050A00001250127A078C007F5D0206DB0F5803F1D
:1050B00010D018BBD8F8000040F40030C8F8000049
:1050C0002E4685B1216888001DD460688A0326D4E5
:1050D00069E000BF04F10800022104F065FA05460A
:1050E000002D2E46EED1D8F82000216D20F480301E
:1050F00000250843C8F82000CDE700BF01250126A0
:1051000021688800E1D504F12800022104F0E0FACA
:10511000002818BF0126D4E900108A0343D5D4F82B
:1051200080206FF0010303EB3223022B0BD34FEAF5
:10513000322343B1012B40F0B980D8F8003043F45A
:105140000033C8F800303DB3CA022FD4CA0037D4A8
:105150008A0240D44A0048D4CA0F55D109025DD40E
:10516000C10766D181076FD4410779D4010700F1E7
:105170008380C10600F18C80800607D504F12800E9
:10518000022104F0A5FA002818BF0125002D18BF40
:1051900001252846BDE8F087D8F8283023F440736D
:1051A0001A43C8F828203546CA02CFD5D8F824209B
:1051B000636F22F000421A43C8F82420CA00C7D502
:1051C00058F81C2CD4F8B83022F480421A4348F81E
:1051D0001C2C8A02BED5D8F82420E36E22F08072FF
:1051E0001A43C8F824204A00B6D558F81C2C22F4DB
:1051F000004248F81C2CD4F8BC2058F81C3C1A4338
:1052000048F81C2CCA0FA9D0D8F82020636D22F0D2
:1052100040521A43C8F820200902A1D5D8F8281016
:10522000D4F88C2021F440011143C8F82810C1079C
:1052300098D004F10800002104F0B6F9002818BF46
:105240000546606881078FD504F10800012104F04C
:10525000ABF9002818BF0546606841077FF586AFA7
:1052600004F10800022104F09FF9002818BF054648
:10527000606801077FF57DAF04F12800002104F08C
:1052800027FA002818BF05466068C1067FF574AF8D
:1052900004F12800012104F01BFA002818BF05467C
:1052A000606880063FF56AAF70E700BF0125CA025B
:1052B0007FF54CAF7AE700BFD4F8B4004FF6CF7358
:1052C00058F81C2CC0F2FF0300F4407122F47C5209
:1052D00003EA10136FF31F30B1F5407F08BF1A4384
:1052E000002548F81C2CD8F844100843C8F844009E
:1052F000FFF7ABBC000000002DE9F04381B00028AF
:1053000000F0208142F200090446C5F20029D9F8D4
:10531000000000F00F0081420DD9D9F8000020F004
:105320000F000843C9F80000D9F8000000F00F0092
:10533000884240F00781206844F218464207C5F6CB
:1053400002060AD52269336803F070039A4204D931
:10535000336823F070031A43326002070AD562698A
:10536000736803F070039A4204D9736823F07003E2
:105370001A437260C2060AD5A269736803F4E06337
:105380009A4204D9736823F4E0631A437260820678
:105390000AD5E269B36803F070039A4204D9B3688E
:1053A00023F070031A43B26010F002020AD0E368DF
:1053B000376807F00F07BB4204D9376827F00F079B
:1053C0003B433360C3073FD0306820F47062D4E9B8
:1053D00001031A433260012856F8182C0AD003281A
:1053E00004D002280AD192030BD4ABE0920108D476
:1053F000A8E000BFD20504D4A4E000BF520740F1EA
:10540000A180884656F8081C21F00701084346F899
:10541000080CFEF7F1FD054641F2883756F8080CF6
:10542000616800F03800B0EBC10F09D0FEF7E4FD71
:10543000401BB842F2D9032001B0BDE8F08300BFA1
:105440002068414600F0020252B1E268336803F07E
:105450000F039A4204D2336823F00F031A433260D9
:10546000D9F8002002F00F0291420CD2D9F80020A6
:1054700022F00F020A43C9F80020D9F8002002F0F8
:105480000F028A425ED141070AD52169326802F0D3
:105490007002914204D2326822F0700211433160EE
:1054A00001070AD56169726802F07002914204D264
:1054B000726822F0700211437160C1060AD5A169B9
:1054C000726802F4E062914204D2726822F4E062EF
:1054D0001143716080060AD5E069B16801F070017E
:1054E000884204D2B16821F070010843B06000F036
:1054F0002FF8316842F28252C0F60102C1F3032153
:10550000515C336803F00F0301F01F01D25C20FAF5
:1055100001F102F01F0040F20C02C2F2000221FA77
:1055200000F0106040F2040040F20802C2F20000F5
:10553000C2F200020068116001B0BDE8F043FFF75D
:105540009FB800BF012001B0BDE8F083000000005B
:1055500044F20041C5F602010869C0F3C200032805
:1055600016D002280ED0002832D10868800649F2F1
:105570000000C0F2D03058BF70470968C1F3C101C4
:10558000C840704747F64000C0F27D10704700BF2A
:105590008B6A886AD1F82CC04A6BC0F30510E8B159
:1055A000C2F3CC0203F0030300EE102A9FED2A1A87
:1055B000B8EE400A20EE010A9FED281ADFE803F05A
:1055C000022110210A6892060ED49FED261A18E0D7
:1055D00040F60010C0F23D00704700BF0020704749
:1055E0009FED1F1A0DE000BF0A6849F20003C0F2E8
:1055F000D033C2F3C10223FA02F201EE102AB8EE50
:10560000411A0A6B9FED183A6FF35F2202EE102ADF
:105610005FEACC7203FE000A03EE100A086BB8EED4
:10562000422AC0F34620B8EE433A013030EE020A77
:10563000B7EE002A81EE031A30EE020A21EE000ACC
:1056400001EE100AB8EE411A80EE010ABCEEC00A63
:1056500010EE100A704700BF000000390024744AA1
:1056600020BCBE4B0024744C000000000000000071
:1056700070B3F0B581B00446007844F20046C0072C
:10568000C5F6020626D12078800740F1C280306935
:1056900010F03801B06A3FD0182908BF5FEA807067
:1056A0003AD0E0683168002862D021F0190108433F
:1056B0003060FEF7A1FC05463068400748D4FEF78D
:1056C0009BFC401B0228F7D9032001B0F0BD00BFAE
:1056D00001207047306900F03801B06A102905D008
:1056E00018290BD100F00300022807D1306880038D
:1056F000C9D560680028C6D13CE100BF6168306848
:1057000000294FD0B1F5A02F44D0B1F5803F5FD133
:1057100040F4803062E000BF30684007E06802D5A6
:10572000002800F02781316821F01901084330601A
:10573000FEF762FC054600BF3068400708D4FEF75C
:105740005BFC401B02284FF00300F5D901B0F0BD0F
:10575000FEF74AFC41F2030188424FD82069716884
:10576000402821F47C3151D141F4003050E000BF99
:1057700021F001003060FEF73FFC0546306840072D
:1057800047D5FEF739FC401B02284FF00300F5D93E
:10579000DCE700BF40F480203060306840F48030A7
:1057A0001CE000BF20F480303060306820F480209E
:1057B0003060FEF721FC0546306880037FF563AF5B
:1057C000FEF71AFC401B64284FF00300F4D9BDE734
:1057D00020F480303060306820F480203060FEF7A4
:1057E0000BFC0546306880033FF54DAFFEF704FC27
:1057F000401B6428F6D9032001B0F0BD7068216910
:1058000020F0FE4040EA016002E000BF41EA0030C3
:1058100070602078C00654D5306900F03801B06A55
:10582000082905D0182919D100F00300012815D145
:105830003068C00503D5E069802840F09B80FEF702
:10584000D3FB41F2030188421ED8206A71682028E8
:1058500021F0F84132D141F0804031E0E069002888
:10586000306819D040F080003060FEF7C5FB054677
:105870003068C005E3D4FEF7BFFB401B02284FF0A1
:105880000300F5D962E700BFF068216A20F07C5080
:1058900040EA0160F06014E020F080003060FEF724
:1058A000ABFB05463068C0050BD5FEF7A5FB401BDA
:1058B00002284FF00300F5D948E700BF41EA8060B5
:1058C0007060207800073FD42078800656D4207876
:1058D000400769D4656A9DB3306900F03800182824
:1058E00040F0A880012DB16A306B43D001F0030273
:1058F000A36A9A423ED1C1F30511E26A914239D1BD
:105900000146226B6FF35F21013A914232D1C0F31D
:105910004622616B01398A422CD1C0F30642A16B49
:1059200001398A4226D1C0F30660E16B0139884211
:1059300020D1706BA16CC0F3CC00814240F0348167
:10594000002001B0F0BD00BF60690028706F41D039
:1059500040F001007067FEF74FFB0546706F80074F
:10596000B2D4FEF749FB401B0228F7D9032001B04F
:10597000F0BD00BF012001B0F0BD00BFA06900284C
:10598000306845D040F480503060FEF735FB054666
:10599000306880049BD4FEF72FFB401B0228F7D908
:1059A000032001B0F0BD00BFD6F8000440F48070C1
:1059B000C6F80004FEF720FB054600BFD6F8000439
:1059C000C00519D4FEF718FB401B6428F6D9032044
:1059D00001B0F0BD20F001007067FEF70DFB054639
:1059E000706F80077FF570AFFEF706FB401B022843
:1059F0004FF00300F4D9A9E6A168306F002943D025
:105A0000052939D0012957D140F001005AE000BFE3
:105A100020F480503060FEF7EFFA054630688004CD
:105A20007FF555AFFEF7E8FA401B02284FF0030060
:105A3000F4D98BE6306820F080703060FEF7DCFA35
:105A4000022D05460CD100BF306880014CD5FEF711
:105A5000D3FA401B02284FF00300F5D976E600BFC9
:105A6000306880017FF56CAFFEF7C6FA401B022854
:105A70004FF00300F4D969E640F004003067306F5E
:105A800040F001001EE000BF20F001003067306FE1
:105A900020F004003067FEF7AFFA054641F2883780
:105AA000306F80077FF516AFFEF7A6FA401BB842AD
:105AB0004FF00300F4D949E620F001003067306F61
:105AC00020F004003067FEF797FA054641F2883768
:105AD000306F80073FF5FEAEFEF78EFA401BB842EE
